:020000040800F2
:10000000005000200D3A0008851200088D120008EB
:10001000951200089D120008A512000800000000BB
:10002000000000000000000000000000AD12000809
:10003000B912000800000000C5120008D112000823
:10004000553A0008553A0008553A0008553A000854
:10005000553A0008553A0008553A0008553A000844
:10006000553A0008553A0008553A0008553A000834
:10007000553A0008553A0008553A0008553A000824
:10008000553A0008553A0008553A0008553A000814
:10009000553A0008553A0008553A0008553A000804
:1000A000553A0008DD120008553A0008553A000894
:1000B000F11200080513000819130008553A00084A
:1000C000553A0008553A0008553A0008553A0008D4
:1000D000553A00082D130008411300085513000875
:1000E000553A0008553A0008553A0008000000004B
:1000F0000000000000000000000000000000000000
:0C01000000000000000000005FF808F1A3
:10010C0010B5054C237833B9044B13B10448AFF345
:10011C0000800123237010BD0C00002000000000A3
:10012C00583A000808B5034B1BB103490348AFF319
:10013C00008008BD0000000010000020583A0008A4
:10014C00034613F8012B002AFBD1181A013870470B
:10015C0003460244934200D1704703F8011BF9E7B0
:10016C0070B500260C4D0D4B5B1B9C10A64209D1A3
:10017C00002603F06BFC0A4D0A4B5B1B9C10A6423D
:10018C0005D170BD55F8043B98470136EEE755F89C
:10019C00043B98470136F2E7F03A0008F03A0008C1
:1001AC00F03A0008F43A000880B594B000AF07F1BB
:1001BC002803282200211846FFF7CAFF07F1140371
:1001CC0000221A605A609A60DA601A613B1D0022A4
:1001DC001A605A609A60DA600923BB624FF480336C
:1001EC00FB6200233B630123BB6301233B640223BB
:1001FC007B644FF48033BB644FF48013FB6407F1D2
:10020C002803184601F062F90346002B01D000F0D8
:10021C007DFC0F237B610223BB610023FB614FF448
:10022C0080633B6200237B6207F1140301211846B3
:10023C0001F0CEFB0346002B01D000F067FC02233B
:10024C007B604FF44043FB603B1D184601F04EFDB4
:10025C000346002B01D000F059FC00BF5037BD46BF
:10026C0080BD000080B582B000AF01F0A9F8FFF7A7
:10027C009BFF00F051FC0023FB7115E000224FF4B2
:10028C000051234801F083FF642001F0FBF80122A8
:10029C004FF400511E4801F07AFF4FF4C87001F082
:1002AC00F1F8FB790133FB71FB79042BE6D900F0F3
:1002BC00DDFC00F02BFD00F075FD00F0C1FD00F041
:1002CC001BF962B600BF134802F088F9124802F01D
:1002DC0085F9124802F082F9114802F07FF900F01A
:1002EC0075FE00F09DFE00F0C5FE01220D490E4882
:1002FC0002F0F1FD01220D490D4802F0ECFD012246
:10030C000C490D4802F0E7FD00BF0837BD4680BD23
:10031C0000100140AC010020F40100203C02002040
:10032C008402002028000020CC020020290000209C
:10033C00140300202A0000205C03002080B500AFCD
:10034C00242200212448FFF703FF422200212348E6
:10035C00FFF7FEFE204B4FF400421A801E4A00238A
:10036C0043F400635380002343F4804343F00103C0
:10037C009380194B0822DA80174B194A9A60164B56
:10038C0040229A81144A002343F44063D381002312
:10039C0043F4804343F0010313820F4B80225A82B3
:1003AC000D4B0F4A5A610C4B4FF480721A830A4A58
:1003BC00002343F440635383002343F4804343F00E
:1003CC0001039383044B4FF40072DA83024B044A0B
:1003DC001A6200BF80BD00BF2C000020500000201E
:1003EC00000C014080B500AF202200211F48FFF710
:1003FC00AFFE1E4B01221A801C4A002343F44063BB
:10040C005380002343F4804343F001039380174B44
:10041C0002221A81154A002343F4406353810023BE
:10042C0043F4804343F001039381104B4FF400528B
:10043C001A820E4A002343F440635382002343F490
:10044C00804343F001039382084B4FF480421A839C
:10045C00064A002343F440635383002343F4804350
:10046C0043F00103938300BF80BD00BF94000020C4
:10047C0080B500AF202200211E48FFF769FE1D4BFE
:10048C0010221A801B4A002343F40063538000237C
:10049C0043F4804343F001039380164B20221A81CE
:1004AC00144A002343F400635381002343F4804334
:1004BC0043F0010393810F4B40221A820D4A002313
:1004CC0043F400635382002343F4804343F001035D
:1004DC009382084B80221A83064A002343F400635C
:1004EC005383002343F4804343F00103938300BF01
:1004FC0080BD00BFB400002080B500AFFFF71EFF29
:10050C00FFF770FFFFF7B4FF00BF80BD80B582B06E
:10051C0000AF0023FB7130E0FA791C4913465B00F5
:10052C0013445B000B44D3F80200FA7917491346C5
:10053C005B0013445B000B441B88194601F010FE52
:10054C000346002B0BD1FA79114913469B00134437
:10055C005B0013440B44093301221A700AE0FA7948
:10056C000B4913469B0013445B0013440B440933A3
:10057C0000221A70FB790133FB71FB79052BCBD967
:10058C0000BF00BF0837BD4680BD00BF2C00002057
:10059C005000002080B582B000AF0023FB7137E023
:1005AC00FA791F4913469B0013445B0013440B4418
:1005BC0009331B78002B14D0FB791A4ADB00134447
:1005CC00D3F80200FB79174A32F83330002219466F
:1005DC0001F0DDFDFB79134ADB00134401229A7113
:1005EC0013E0FB790F4ADB001344D3F80200FB79CC
:1005FC000C4A32F833300122194601F0C8FDFB7960
:10060C00084ADB00134400229A71FB790133FB7119
:10061C00FB79032BC4D900BF00BF0837BD4680BD92
:10062C0050000020B400002080B500AF364B93F88A
:10063C003530002B18D0354BD3F80230334A1188A3
:10064C000022184601F0A3FD304BD3F812302F4A8C
:10065C00118A0022184601F09AFD2C4B01229A7146
:10066C002A4B01229A7517E0284BD3F80230274AFF
:10067C0011880122184601F08AFD244BD3F8123060
:10068C00224A118A0122184601F081FD1F4B0022DB
:10069C009A711E4B00229A751B4B93F84030002B1D
:1006AC0018D01A4BD3F80A30184A11890022184670
:1006BC0001F06DFD154BD3F81A30144A118B002242
:1006CC00184601F064FD114B01229A730F4B012265
:1006DC009A7717E00D4BD3F80A300C4A1189012296
:1006EC00184601F054FD094BD3F81A30074A118B08
:1006FC000122184601F04BFD044B00229A73034B68
:10070C0000229A7700BF80BD50000020940000208A
:10071C0080B582B000AF03463960FB711346BB80D5
:10072C00FB79002B06D100224FF40061224801F026
:10073C002EFD08E0FB79022B05D100224FF48051ED
:10074C001E4801F024FD012000F09CFEFB79002BDB
:10075C0007D1BB880A33BA883968194802F030FBD4
:10076C0009E0FB79022B06D1BB880A33BA883968B9
:10077C00144802F025FBBB880A33BA883968114843
:10078C0002F01EFB012000F07DFEFB79002B06D150
:10079C0001224FF40061084801F0F9FC08E0FB79F4
:1007AC00022B05D101224FF48051044801F0EFFCDB
:1007BC0000BF0837BD4680BD00080140000C014059
:1007CC00CC0200205C03002080B582B000AF034651
:1007DC003960FB713868FFF7B3FC03469AB2FB79BA
:1007EC0039681846FFF794FF00BF0837BD4680BD37
:1007FC0080B500AF0A4B1B7803F00403DBB2002B6F
:10080C000BD0084800F060F907490020FFF7DCFF27
:10081C00034A137823F00403137000BF80BD00BF9C
:10082C00D4000020703A0008843A000880B500AF6C
:10083C000A4B1B7803F00803DBB2002B0BD00848E3
:10084C0000F042F907490220FFF7BEFF034A137874
:10085C0023F00803137000BF80BD00BFD40000203C
:10086C00903A0008A43A000880B582B000AF7860D6
:10087C007B681A68384B1B689A4240D1374B93F807
:10088C006730002B1AD0364B1B7803F00403DBB215
:10089C00002B13D1314BB3F865309BB25A1C91B27B
:1008AC002E4AA2F865101D2B08D92C4B002283F878
:1008BC0067202B4A137843F004031370294B93F8E9
:1008CC006730002B44D0264B1B7803F00803DBB2B7
:1008DC00002B3DD1234BB3F865309BB25A1C91B21F
:1008EC00204AA2F865101D2B32D91E4B002283F82A
:1008FC0067201B4A137843F00403137028E07B68CD
:10090C001A68194B1B689A4222D1FFF7FFFDFFF7BB
:10091C0041FEFFF789FE154B1B889BB25A1C91B206
:10092C00124A1180592B05D900224FF4005110485E
:10093C0001F02DFC0D4B1B889BB2632B08D90122B7
:10094C004FF400510A4801F022FC084B00221A8097
:10095C0000BF0837BD4680BDAC010020D800002088
:10096C00D400002040010020F4010020A801002048
:10097C000010014080B582B000AF78607B681B68C6
:10098C003D4A934232D13D4B1B7803F00403DBB25A
:10099C00002B25D13A4B93F864305A1CD1B2384A0B
:1009AC0082F864101A46374B1978354B9954344BEE
:1009BC00002283F86520002283F86620304B012248
:1009CC0083F867202E4B93F86430632B08D964228C
:1009DC0000212B48FFF7BCFB294B002283F8642035
:1009EC0001222849284802F076FA41E07B681B680E
:1009FC00264A934205D101222549264802F06BFA7A
:100A0C0036E07B681B68244A934231D11B4B1B7820
:100A1C0003F00803DBB2002B25D1204B93F8643094
:100A2C005A1CD1B21D4A82F864101A461C4B197814
:100A3C001A4B9954194B002283F86520002283F835
:100A4C006620164B012283F86720144B93F8643010
:100A5C00632B08D9642200211048FFF779FB0F4B58
:100A6C00002283F8642003220649074802F033FA77
:100A7C0000BF0837BD4680BD00380140D4000020BF
:100A8C00D800002028000020CC02002000440040A8
:100A9C0029000020140300200048004040010020E1
:100AAC002A00002080B582B000AF78600B467B80B6
:100ABC007B887A887968034802F082F900BF08378E
:100ACC00BD4680BD1403002080B582B000AF7860B5
:100ADC007868FFF735FB03469BB219467868FFF739
:100AEC00E1FF00BF0837BD4680BD000080B500AFF8
:100AFC00FFF7B8FB0448FFF7E7FFFFF779FEFFF7B6
:100B0C0095FE00BFF9E700BFB03A000880B400AF13
:100B1C0072B600BF00BFFDE780B588B000AF07F12B
:100B2C00100300221A605A609A60DA604B4B9B6982
:100B3C004A4A43F010039361484B9B6903F010033E
:100B4C00FB60FB68454B9B69444A43F0200393616F
:100B5C00424B9B6903F02003BB60BB683F4B9B6916
:100B6C003E4A43F0040393613C4B9B6903F004033E
:100B7C007B607B68394B9B69384A43F0080393616F
:100B8C00364B9B6903F008033B603B6801224FF432
:100B9C000761334801F0FBFA00228021304801F054
:100BAC00F6FA002201212F4801F0F1FA012247F256
:100BBC0002012C4801F0EBFA00224FF400512A48B4
:100BCC0001F0E5FA4FF400533B6101237B610023F4
:100BDC00BB610223FB6107F110031946224801F0A7
:100BEC003BF94FF40F633B6101237B610023BB6135
:100BFC000223FB6107F110031946194801F02CF987
:100C0C0047F203033B6101237B610023BB61022399
:100C1C00FB6107F110031946124801F01DF94FF45E
:100C2C0000433B6100237B610123BB6107F110038F
:100C3C0019460B4801F010F94FF472733B61002315
:100C4C007B610123BB6107F110031946054801F0D4
:100C5C0003F900BF2037BD4680BD00BF0010024025
:100C6C0000080140000C01400010014080B586B026
:100C7C0000AF07F1080300221A605A609A60DA602C
:100C8C003B4600221A605A601E4B1F4A1A601D4BCD
:100C9C002F225A601B4B00229A601A4B40F2E7320B
:100CAC00DA60184B00221A61164B00225A61154B60
:100CBC0000229A61134801F042FC0346002B01D03C
:100CCC00FFF724FF4FF48053BB6007F1080319466C
:100CDC000C4801F0C5FD0346002B01D0FFF716FFB1
:100CEC0000233B6000237B603B461946054801F01E
:100CFC00A7FF0346002B01D0FFF708FF00BF1837F2
:100D0C00BD4680BDAC010020002C014080B586B0F2
:100D1C0000AF07F1080300221A605A609A60DA608B
:100D2C003B4600221A605A601D4B4FF080421A60FD
:100D3C001B4B2F225A601A4B00229A60184B42F21E
:100D4C000F72DA60164B00221A61154B00229A6161
:100D5C00134801F0F4FB0346002B01D0FFF7D6FE3D
:100D6C004FF48053BB6007F1080319460C4801F09F
:100D7C0077FD0346002B01D0FFF7C8FE00233B6034
:100D8C0000237B603B461946054801F059FF03469A
:100D9C00002B01D0FFF7BAFE00BF1837BD4680BD4F
:100DAC00F401002080B586B000AF07F108030022E3
:100DBC001A605A609A60DA603B4600221A605A60E8
:100DCC001D4B1E4A1A601C4B2F225A601A4B0022D4
:100DDC009A60194B40F2E732DA60174B00221A6125
:100DEC00154B00229A61144801F0A9FB0346002B15
:100DFC0001D0FFF78BFE4FF48053BB6007F1080363
:100E0C0019460D4801F02CFD0346002B01D0FFF7CD
:100E1C007DFE00233B6000237B603B461946064861
:100E2C0001F00EFF0346002B01D0FFF76FFE00BF51
:100E3C001837BD4680BD00BF3C02002000040040B6
:100E4C0080B586B000AF07F1080300221A605A6023
:100E5C009A60DA603B4600221A605A601D4B1E4AAB
:100E6C001A601C4B2F225A601A4B00229A60194BA5
:100E7C0040F2E732DA60174B00221A61154B002260
:100E8C009A61144801F05BFB0346002B01D0FFF77D
:100E9C003DFE4FF48053BB6007F1080319460D4823
:100EAC0001F0DEFC0346002B01D0FFF72FFE0023E0
:100EBC003B6000237B603B461946064801F0C0FEB0
:100ECC000346002B01D0FFF721FE00BF1837BD46AB
:100EDC0080BD00BF840200200008004080B586B0B1
:100EEC0000AF78607B681B68344A934214D1344B52
:100EFC009B69334A43F400639361314B9B6903F460
:100F0C0000637B617B6900220021192001F0E1FA6A
:100F1C00192001F0FAFA4CE07B681B68B3F1804FA2
:100F2C0014D1274BDB69264A43F00103D361244BD0
:100F3C00DB6903F001033B613B69002200211C20AB
:100F4C0001F0C7FA1C2001F0E0FA32E07B681B6864
:100F5C001C4A934214D11A4BDB69194A43F0020321
:100F6C00D361174BDB6903F00203FB60FB680022C3
:100F7C0000211D2001F0ADFA1D2001F0C6FA18E089
:100F8C007B681B68104A934213D10D4BDB690C4AEA
:100F9C0043F00403D3610A4BDB6903F00403BB6029
:100FAC00BB68002200211E2001F093FA1E2001F0E4
:100FBC00ACFA00BF1837BD4680BD00BF002C014005
:100FCC0000100240000400400008004080B500AF53
:100FDC00114B124A1A60104B4FF4E1325A600E4B0F
:100FEC0000229A600C4B0022DA600B4B00221A6133
:100FFC00094B0C225A61084B00229A61064B0022C5
:10100C00DA61054801F08CFE0346002B01D0FFF796
:10101C007DFD00BF80BD00BFCC0200200038014028
:10102C0080B500AF114B124A1A60104B4FF4E132ED
:10103C005A600E4B00229A600C4B0022DA600B4B6C
:10104C0000221A61094B0C225A61084B00229A614A
:10105C00064B0022DA61054801F062FE0346002BC4
:10106C0001D0FFF753FD00BF80BD00BF140300206B
:10107C000044004080B500AF114B124A1A60104B6F
:10108C004FF4E1325A600E4B00229A600C4B002256
:10109C00DA600B4B00221A61094B0C225A61084B87
:1010AC0000229A61064B0022DA61054801F038FEF5
:1010BC000346002B01D0FFF729FD00BF80BD00BF08
:1010CC005C0300200048004080B58CB000AF786015
:1010DC0007F1200300221A605A609A60DA607B687C
:1010EC001B685F4A93423AD15E4B9B695D4A43F45D
:1010FC00804393615B4B9B6903F48043FB61FB6909
:10110C00584B9B69574A43F004039361554B9B69B9
:10111C0003F00403BB61BB694FF400733B62022311
:10112C007B620323FB6207F1200319464E4800F053
:10113C0093FE4FF480633B6200237B620023BB620F
:10114C0007F120031946484800F086FE00220021D2
:10115C00252001F0BEF9252001F0D7F97CE07B6851
:10116C001B68424A934238D13E4BDB693D4A43F4FB
:10117C000033D3613B4BDB6903F400337B617B6948
:10118C00384B9B69374A43F004039361354B9B6999
:10119C0003F004033B613B6904233B6202237B6243
:1011AC000323FB6207F1200319462F4800F054FE7D
:1011BC0008233B6200237B620023BB6207F1200300
:1011CC001946294800F048FE00220021262001F093
:1011DC0080F9262001F099F93EE07B681B68244ACF
:1011EC00934239D11F4BDB691E4A43F48023D361F0
:1011FC001C4BDB6903F48023FB60FB68194B9B6978
:10120C00184A43F008039361164B9B6903F00803DB
:10121C00BB60BB684FF480633B6202237B62032399
:10122C00FB6207F120031946124800F015FE4FF43B
:10123C0000633B6200237B620023BB6207F1200347
:10124C0019460C4800F008FE00220021272001F06E
:10125C0040F9272001F059F900BF3037BD4680BD59
:10126C0000380140001002400008014000440040DA
:10127C0000480040000C014080B400AF00BFFDE707
:10128C0080B400AF00BFFDE780B400AF00BFFDE746
:10129C0080B400AF00BFFDE780B400AF00BFFDE736
:1012AC0080B400AF00BFBD4680BC704780B400AFB7
:1012BC0000BFBD4680BC704780B400AF00BFBD46C8
:1012CC0080BC704780B500AF00F0C0F800BF80BD97
:1012DC0080B500AF024801F0D3F900BF80BD00BF5C
:1012EC00AC01002080B500AF024801F0C9F900BF85
:1012FC0080BD00BFF401002080B500AF024801F0B2
:10130C00BFF900BF80BD00BF3C02002080B500AF1C
:10131C00024801F0B5F900BF80BD00BF8402002077
:10132C0080B500AF024801F0FBFD00BF80BD00BFDF
:10133C00CC02002080B500AF024801F0F1FD00BFE7
:10134C0080BD00BF1403002080B500AF024801F03F
:10135C00E7FD00BF80BD00BF5C03002080B485B0FA
:10136C0000AF154B9B69144A43F001039361124B78
:10137C009B6903F00103BB60BB680F4BDB690E4A32
:10138C0043F08053D3610C4BDB6903F080537B60DB
:10139C007B680A4B5B68FB60FB6823F0E063FB60D7
:1013AC00FB6843F00073FB60044AFB68536000BFAA
:1013BC001437BD4680BC704700100240000001404D
:1013CC0080B500AF084B1B68074A43F0100313604D
:1013DC00032001F073F80F2000F008F8FFF7BEFFB0
:1013EC000023184680BD00BF0020024080B582B0AB
:1013FC0000AF7860124B1A68124B1B7819464FF4E9
:10140C007A73B3FBF1F3B2FBF3F3184601F08BF8EC
:10141C000346002B01D001230EE07B680F2B0AD86A
:10142C00002279684FF0FF3001F053F8064A7B68D0
:10143C001360002300E0012318460837BD4680BD29
:10144C0008000020040000200000002080B400AF41
:10145C00054B1B781A46054B1B681344034A136053
:10146C0000BFBD4680BC704704000020A4030020D0
:10147C0080B400AF024B1B681846BD4680BC704759
:10148C00A403002080B584B000AF7860FFF7F0FFB4
:10149C00B8607B68FB60FB68B3F1FF3F05D00A4B7B
:1014AC001B781A46FB681344FB6000BFFFF7E0FF94
:1014BC000246BB68D31AFA689A42F7D800BF00BF3D
:1014CC001037BD4680BD00BF0400002080B586B03B
:1014DC0000AF78607B68002B01D1012372E27B683E
:1014EC001B6803F00103002B00F08780924B5B68B4
:1014FC0003F00C03042B0CD08F4B5B6803F00C0334
:10150C00082B12D18C4B5B6803F48033B3F5803F0E
:10151C000BD1894B1B6803F40033002B6CD07B6818
:10152C005B68002B68D101234CE27B685B68B3F5E8
:10153C00803F06D1804B1B687F4A43F48033136095
:10154C002EE07B685B68002B0CD17B4B1B687A4AC6
:10155C0023F480331360784B1B68774A23F4802381
:10156C0013601DE07B685B68B3F5A02F0CD1724B48
:10157C001B68714A43F4802313606F4B1B686E4ADF
:10158C0043F4803313600BE06B4B1B686A4A23F403
:10159C0080331360684B1B68674A23F48023136005
:1015AC007B685B68002B13D0FFF762FF386108E0A3
:1015BC00FFF75EFF02463B69D31A642B01D9032364
:1015CC0000E25D4B1B6803F40033002BF0D014E0F9
:1015DC00FFF74EFF386108E0FFF74AFF02463B6910
:1015EC00D31A642B01D90323ECE1534B1B6803F48E
:1015FC000033002BF0D100E000BF7B681B6803F0C8
:10160C000203002B63D04C4B5B6803F00C03002BE4
:10161C000BD0494B5B6803F00C03082B1CD1464BD9
:10162C005B6803F48033002B16D1434B1B6803F02B
:10163C000203002B05D07B681B69012B01D0012311
:10164C00C0E13D4B1B6823F0F8027B685B69DB0053
:10165C00394913430B603AE07B681B69002B20D09F
:10166C00364B01221A60FFF703FF386108E0FFF7E1
:10167C00FFFE02463B69D31A022B01D90323A1E1D9
:10168C002D4B1B6803F00203002BF0D02A4B1B6878
:10169C0023F0F8027B685B69DB00274913430B607E
:1016AC0015E0264B00221A60FFF7E2FE386108E0D5
:1016BC00FFF7DEFE02463B69D31A022B01D9032346
:1016CC0080E11D4B1B6803F00203002BF0D17B68FB
:1016DC001B6803F00803002B3AD07B689B69002B36
:1016EC0019D0174B01221A60FFF7C2FE386108E0CF
:1016FC00FFF7BEFE02463B69D31A022B01D9032326
:10170C0060E10D4B5B6A03F00203002BF0D001206B
:10171C0000F0CEFA1CE00A4B00221A60FFF7A8FE7C
:10172C0038610FE0FFF7A4FE02463B69D31A022B87
:10173C0008D9032346E100BF0010024000004242DA
:10174C0080044242924B5B6A03F00203002BE9D106
:10175C007B681B6803F00403002B00F0A6800023B9
:10176C00FB758B4BDB6903F08053002B0DD1884B41
:10177C00DB69874A43F08053D361854BDB6903F007
:10178C008053BB60BB680123FB75824B1B6803F461
:10179C008073002B18D17F4B1B687E4A43F48073F7
:1017AC001360FFF765FE386108E0FFF761FE024643
:1017BC003B69D31A642B01D9032303E1754B1B68D6
:1017CC0003F48073002BF0D07B68DB68012B06D10F
:1017DC006F4B1B6A6E4A43F0010313622DE07B686A
:1017EC00DB68002B0CD16A4B1B6A694A23F001039E
:1017FC001362674B1B6A664A23F0040313621CE0F6
:10180C007B68DB68052B0CD1614B1B6A604A43F08B
:10181C00040313625E4B1B6A5D4A43F001031362BF
:10182C000BE05B4B1B6A5A4A23F001031362584BC3
:10183C001B6A574A23F0040313627B68DB68002B96
:10184C0015D0FFF715FE38610AE0FFF711FE0246CE
:10185C003B69D31A41F28832934201D90323B1E098
:10186C004B4B1B6A03F00203002BEED014E0FFF786
:10187C00FFFD38610AE0FFF7FBFD02463B69D31A16
:10188C0041F28832934201D903239BE0404B1B6AFF
:10189C0003F00203002BEED1FB7D012B05D13C4B59
:1018AC00DB693B4A23F08053D3617B68DB69002BF7
:1018BC0000F08780364B5B6803F00C03082B61D07B
:1018CC007B68DB69022B46D1334B00221A60FFF791
:1018DC00CFFD386108E0FFF7CBFD02463B69D31A18
:1018EC00022B01D903236DE0294B1B6803F0007315
:1018FC00002BF0D17B681B6AB3F5803F08D1244BD9
:10190C005B6823F400327B689B68214913434B606E
:10191C001F4B5B6823F474127B68196A7B685B6AE3
:10192C000B431B4913434B601B4B01221A60FFF7FF
:10193C009FFD386108E0FFF79BFD02463B69D31A17
:10194C00022B01D903233DE0114B1B6803F00073FC
:10195C00002BF0D035E0104B00221A60FFF788FD09
:10196C00386108E0FFF784FD02463B69D31A022B6D
:10197C0001D9032326E0064B1B6803F00073002BF0
:10198C00F0D11EE07B68DB69012B07D1012319E044
:10199C000010024000700040600042420B4B5B683C
:1019AC00FB60FB6803F480327B681B6A9A4206D1A9
:1019BC00FB6803F470127B685B6A9A4201D00123C6
:1019CC0000E0002318461837BD4680BD00100240C9
:1019DC0080B584B000AF786039607B68002B01D192
:1019EC000123D0E06A4B1B6803F007033A689A4264
:1019FC0010D9674B1B6823F0070265493B681343FA
:101A0C000B60634B1B6803F007033A689A4201D0E2
:101A1C000123B8E07B681B6803F00203002B20D085
:101A2C007B681B6803F00403002B05D0594B5B68E3
:101A3C00584A43F4E06353607B681B6803F0080367
:101A4C00002B05D0534B5B68524A43F460535360F0
:101A5C00504B5B6823F0F0027B689B684D49134345
:101A6C004B607B681B6803F00103002B40D07B6844
:101A7C005B68012B07D1474B1B6803F40033002B29
:101A8C0015D101237FE07B685B68022B07D1414BAA
:101A9C001B6803F00073002B09D1012373E03D4B4D
:101AAC001B6803F00203002B01D101236BE0394BBF
:101ABC005B6823F003027B685B68364913434B6019
:101ACC00FFF7D6FCF8600AE0FFF7D2FC0246FB6891
:101ADC00D31A41F28832934201D9032353E02D4BA0
:101AEC005B6803F00C027B685B689B009A42EBD14D
:101AFC00274B1B6803F007033A689A4210D2244B19
:101B0C001B6823F0070222493B6813430B60204BF0
:101B1C001B6803F007033A689A4201D0012332E0B4
:101B2C007B681B6803F00403002B08D0194B5B681F
:101B3C0023F4E0627B68DB68164913434B607B68D7
:101B4C001B6803F00803002B09D0124B5B6823F4CD
:101B5C0060527B681B69DB000E4913434B6000F03D
:101B6C0021F802460B4B5B681B0903F00F030A4973
:101B7C00CB5C22FA03F3094A1360094B1B68184625
:101B8C00FFF734FC002318461037BD4680BD00BF5C
:101B9C000020024000100240D03A0008080000204B
:101BAC000000002080B487B000AF0023FB6000234E
:101BBC00BB6000237B6100237B6000233B611E4BD9
:101BCC005B68FB60FB6803F00C03042B02D0082B52
:101BDC0003D027E0194B3B6127E0FB689B0C03F01B
:101BEC000F03174AD35C7B60FB6803F48033002B34
:101BFC0010D0114B5B685B0C03F00103114AD35CF2
:101C0C00BB607B680D4A03FB02F2BB68B2FBF3F3CB
:101C1C007B6104E07B680C4A02FB03F37B617B690C
:101C2C003B6102E0054B3B6100BF3B6918461C372A
:101C3C00BD4680BC704700BF0010024000127A0005
:101C4C00BC3A0008CC3A000800093D0080B400AF53
:101C5C00024B1B681846BD4680BC7047080000202C
:101C6C0080B500AFFFF7F2FF0246054B5B681B0A1D
:101C7C0003F007030349CB5C22FA03F3184680BD3B
:101C8C0000100240E03A000880B500AFFFF7DEFF1D
:101C9C000246054B5B68DB0A03F007030349CB5C88
:101CAC0022FA03F3184680BD00100240E03A000807
:101CBC0080B485B000AF78600A4B1B680A4AA2FB5F
:101CCC0003235B0A7A6802FB03F3FB6000BFFB682B
:101CDC005A1EFA60002BF9D100BF00BF1437BD4665
:101CEC0080BC704708000020D34D621080B586B0D0
:101CFC0000AF786000233B610023FB607B681B68AE
:101D0C0003F00103002B7DD00023FB754F4BDB69E7
:101D1C0003F08053002B0DD14C4BDB694B4A43F045
:101D2C008053D361494BDB6903F08053BB60BB68C4
:101D3C000123FB75464B1B6803F48073002B18D1F1
:101D4C00434B1B68424A43F480731360FFF790FBCC
:101D5C00386108E0FFF78CFB02463B69D31A642B11
:101D6C0001D903236DE03A4B1B6803F48073002BFD
:101D7C00F0D0364B1B6A03F44073FB60FB68002BFE
:101D8C002ED07B685B6803F44073FA689A4227D0C4
:101D9C002E4B1B6A23F44073FB602E4B01221A60FE
:101DAC002C4B00221A60294AFB681362FB6803F073
:101DBC000103002B14D0FFF75BFB38610AE0FFF73F
:101DCC0057FB02463B69D31A41F28832934201D940
:101DDC00032336E01D4B1B6A03F00203002BEED0ED
:101DEC001A4B1B6A23F440727B685B6817491343D8
:101DFC000B62FB7D012B05D1144BDB69134A23F0DD
:101E0C008053D3617B681B6803F00203002B08D05E
:101E1C000E4B5B6823F440427B689B680B49134371
:101E2C004B607B681B6803F01003002B08D0074B3A
:101E3C005B6823F480027B68DB68044913434B60C6
:101E4C00002318461837BD4680BD00BF0010024065
:101E5C00007000404004424280B48BB000AF786008
:101E6C00396000237B6200233B6269E101227B6ABB
:101E7C0002FA03F3FB613B681B68FA691340BB6110
:101E8C00BA69FB699A4240F058813B685B689A4A90
:101E9C0093425ED0984A934275D8984A934258D050
:101EAC00964A93426FD8964A934252D0944A9342A0
:101EBC0069D8944A93424CD0924A934263D8924A3E
:101ECC00934246D0904A93425DD8122B2AD8122BBB
:101EDC0059D801A252F823F05F1F0008391F0008DF
:101EEC004B1F00088D1F0008931F0008931F00084C
:101EFC00931F0008931F0008931F0008931F0008EE
:101F0C00931F0008931F0008931F0008931F0008DD
:101F1C00931F0008931F0008931F0008411F00081F
:101F2C00551F0008794A934213D02CE03B68DB68BC
:101F3C003B6229E03B68DB6804333B6224E03B688E
:101F4C00DB6808333B621FE03B68DB680C333B62A9
:101F5C001AE03B689B68002B02D104233B6213E020
:101F6C003B689B68012B05D108233B627B68FA69AF
:101F7C001A6109E008233B627B68FA695A6103E045
:101F8C0000233B6200E000BFBB69FF2B01D87B68DC
:101F9C0001E07B6804337B61BB69FF2B02D87B6A51
:101FAC009B0002E07B6A083B9B003B617B691A68E3
:101FBC000F213B6901FA03F3DB431A40396A3B6991
:101FCC0001FA03F31A437B691A603B685B6803F000
:101FDC008053002B00F0B1804D4B9B694C4A43F071
:101FEC00010393614A4B9B6903F00103BB60BB681F
:101FFC00484A7B6A9B08023352F82330FB607B6AA9
:10200C0003F003039B000F2202FA03F3DB43FA688D
:10201C001340FB607B68404A934213D07B683F4A75
:10202C0093420DD07B683E4A934207D07B683D4A71
:10203C00934201D1032306E0042304E0022302E0CF
:10204C00012300E000237A6A02F00302920093401D
:10205C00FA681343FB602F497B6A9B080233FA68CA
:10206C0041F823203B685B6803F48013002B06D0F7
:10207C002D4B9A682C49BB6913438B6006E02A4BA5
:10208C009A68BB69DB43284913408B603B685B68EB
:10209C0003F40013002B06D0234BDA682249BB69EA
:1020AC001343CB6006E0204BDA68BB69DB431E4967
:1020BC001340CB603B685B6803F40033002B06D005
:1020CC00194B5A681849BB6913434B6006E0164B11
:1020DC005A68BB69DB43144913404B603B685B682F
:1020EC0003F48033002B21D00F4B1A680E49BB69C7
:1020FC0013430B6021E000BF0000321000003110D0
:10210C00000022100000211000001210000011101D
:10211C00001002400000014000080140000C01408A
:10212C000010014000140140000401400B4B1A68E0
:10213C00BB69DB43094913400B607B6A01337B624B
:10214C003B681A687B6A22FA03F3002B7FF48EAE8D
:10215C0000BF00BF2C37BD4680BC70470004014057
:10216C0080B485B000AF78600B467B807B689A6842
:10217C007B881340002B02D00123FB7301E000236A
:10218C00FB73FB7B18461437BD4680BC704780B48C
:10219C0083B000AF78600B467B8013467B707B78F6
:1021AC00002B03D07A887B681A6103E07B881A04C1
:1021BC007B681A6100BF0C37BD4680BC704780B489
:1021CC0085B000AF78600023FB737B6893F82130F7
:1021DC00DBB2022B08D07B6804229A637B68002256
:1021EC0083F82020012320E07B681B681A687B6839
:1021FC001B6822F00E021A607B681B681A687B68E9
:10220C001B6822F001021A607B681A6C7B68DB6B1E
:10221C00012101FA02F25A607B68012283F8212025
:10222C007B68002283F82020FB7B18461437BD46C0
:10223C0080BC704780B584B000AF78600023FB731E
:10224C007B6893F82130DBB2022B05D07B6804222B
:10225C009A630123FB7351E07B681B681A687B68E7
:10226C001B6822F00E021A607B681B681A687B6878
:10227C001B6822F001021A607B681B68224A934299
:10228C0029D07B681B68214A934222D07B681B684B
:10229C001F4A93421AD07B681B681E4A934212D085
:1022AC007B681B681C4A93420AD07B681B681B4ADC
:1022BC00934202D14FF480130EE04FF080730BE089
:1022CC004FF4803308E04FF4805305E04FF48073F3
:1022DC0002E0102300E00123114A53607B680122C5
:1022EC0083F821207B68002283F820207B685B6BBD
:1022FC00002B03D07B685B6B78689847FB7B184698
:10230C001037BD4680BD00BF080002401C000240D3
:10231C003000024044000240580002406C00024071
:10232C000000024080B485B000AF78607B6803F099
:10233C000703FB600C4BDB68BB60BA684FF6FF030E
:10234C001340BB60FB681A02BB68134343F0BF63C6
:10235C0043F40033BB60044ABB68D36000BF14373E
:10236C00BD4680BC704700BF00ED00E080B400AFFC
:10237C00044BDB681B0A03F007031846BD4680BC00
:10238C00704700BF00ED00E080B483B000AF03469F
:10239C00FB7197F90730002B0BDBFB7903F01F0265
:1023AC00064997F907305B09012000FA02F241F85F
:1023BC00232000BF0C37BD4680BC704700E100E015
:1023CC0080B483B000AF03463960FB7197F90730D6
:1023DC00002B0ADB3B68DAB20C4997F90730120183
:1023EC00D2B20B4483F800230AE03B68DAB2084906
:1023FC00FB7903F00F03043B1201D2B20B441A76A3
:10240C0000BF0C37BD4680BC704700BF00E100E048
:10241C0000ED00E080B489B000AFF860B9607A607C
:10242C00FB6803F00703FB61FB69C3F10703042B93
:10243C0028BF0423BB61FB690433062B02D9FB695B
:10244C00033B00E000237B614FF0FF32BB6902FAD3
:10245C0003F3DA43BB681A407B699A404FF0FF31B3
:10246C007B6901FA03F3D9437B680B40134318468D
:10247C002437BD4680BC704780B582B000AF786011
:10248C007B68013BB3F1807F01D301230FE00A4A43
:10249C007B68013B53600F214FF0FF30FFF790FF3B
:1024AC00054B00229A60044B07221A600023184641
:1024BC000837BD4680BD00BF10E000E080B582B09B
:1024CC0000AF78607868FFF72DFF00BF0837BD4676
:1024DC0080BD80B586B000AF0346B9607A60FB73EF
:1024EC0000237B61FFF742FF78617A68B9687869ED
:1024FC00FFF790FF024697F90F3011461846FFF789
:10250C005FFF00BF1837BD4680BD80B582B000AFFD
:10251C000346FB7197F907301846FFF735FF00BFEC
:10252C000837BD4680BD80B582B000AF7860786852
:10253C00FFF7A2FF034618460837BD4680BD80B59D
:10254C0082B000AF78607B68002B01D1012341E0A1
:10255C007B6893F83D30DBB2002B06D17B68002200
:10256C0083F83C207868FEF7B9FC7B68022283F87C
:10257C003D207B681A687B6804331946104600F0CE
:10258C005BFA7B68012283F846207B68012283F882
:10259C003E207B68012283F83F207B68012283F870
:1025AC0040207B68012283F841207B68012283F85C
:1025BC0042207B68012283F843207B68012283F848
:1025CC0044207B68012283F845207B68012283F834
:1025DC003D20002318460837BD4680BD80B485B029
:1025EC0000AF78607B6893F83D30DBB2012B01D0F3
:1025FC0001233AE07B68022283F83D207B681B684C
:10260C00DA687B681B6842F00102DA607B681B6841
:10261C00184A93420ED07B681B68B3F1804F09D0E7
:10262C007B681B68144A934204D07B681B68134A6E
:10263C00934211D17B681B689B6803F00703FB6016
:10264C00FB68062B10D07B681B681A687B681B68BC
:10265C0042F001021A6007E07B681B681A687B680D
:10266C001B6842F001021A60002318461437BD465D
:10267C0080BC7047002C0140000400400008004062
:10268C0080B584B000AF78607B681B68DB68FB604A
:10269C007B681B681B69BB60BB6803F00203002BE3
:1026AC0020D0FB6803F00203002B1BD07B681B6857
:1026BC006FF002021A617B6801221A777B681B6833
:1026CC009B6903F00303002B03D0786800F098F9A2
:1026DC0005E0786800F08BF9786800F09AF97B686F
:1026EC0000221A77BB6803F00403002B20D0FB6890
:1026FC0003F00403002B1BD07B681B686FF00402F3
:10270C001A617B6802221A777B681B689B6903F449
:10271C004073002B03D0786800F072F905E07868FC
:10272C0000F065F9786800F074F97B6800221A777C
:10273C00BB6803F00803002B20D0FB6803F00803F0
:10274C00002B1BD07B681B686FF008021A617B683A
:10275C0004221A777B681B68DB6903F00303002BE8
:10276C0003D0786800F04CF905E0786800F03FF988
:10277C00786800F04EF97B6800221A77BB6803F08A
:10278C001003002B20D0FB6803F01003002B1BD090
:10279C007B681B686FF010021A617B6808221A773D
:1027AC007B681B68DB6903F44073002B03D07868EB
:1027BC0000F026F905E0786800F019F9786800F067
:1027CC0028F97B6800221A77BB6803F00103002B01
:1027DC000CD0FB6803F00103002B07D07B681B684F
:1027EC006FF001021A617868FEF73EF8BB6803F0DF
:1027FC008003002B0CD0FB6803F08003002B07D068
:10280C007B681B686FF080021A61786800F07FFAB1
:10281C00BB6803F04003002B0CD0FB6803F04003B3
:10282C00002B07D07B681B686FF040021A61786838
:10283C0000F0F8F8BB6803F02003002B0CD0FB6809
:10284C0003F02003002B07D07B681B686FF020027D
:10285C001A61786800F052FA00BF1037BD4680BD8F
:10286C0080B584B000AF786039600023FB737B685F
:10287C0093F83C30012B01D10223B4E07B68012298
:10288C0083F83C207B68022283F83D207B681B6820
:10289C009B68BB60BB6823F07703BB60BB6823F409
:1028AC007F43BB607B681B68BA689A603B681B6897
:1028BC00B3F5005F3ED0B3F5005F00F28780B3F54F
:1028CC00805F00F08680B3F5805F7FD8702B1AD0C4
:1028DC00702B7BD8602B50D0602B77D8502B3CD0F2
:1028EC00502B73D8402B58D0402B6FD8302B64D042
:1028FC00302B6BD8202B60D0202B67D8002B5CD0D2
:10290C00102B5AD062E07B6818683B6899683B686A
:10291C005A683B68DB6800F074F97B681B689B683D
:10292C00BB60BB6843F07703BB607B681B68BA680D
:10293C009A604FE07B6818683B6899683B685A68F6
:10294C003B68DB6800F05DF97B681B689A687B6804
:10295C001B6842F480429A603CE07B6818683B68D4
:10296C0059683B68DB681A4600F0D4F87B681B6832
:10297C005021184600F02BF92CE07B6818683B6856
:10298C0059683B68DB681A4600F0F2F87B681B68F4
:10299C006021184600F01BF91CE07B6818683B6846
:1029AC0059683B68DB681A4600F0B4F87B681B6812
:1029BC004021184600F00BF90CE07B681A683B6864
:1029CC001B681946104600F002F903E00123FB7363
:1029DC0000E000BF7B68012283F83D207B68002269
:1029EC0083F83C20FB7B18461037BD4680BD80B475
:1029FC0083B000AF786000BF0C37BD4680BC704719
:102A0C0080B483B000AF786000BF0C37BD4680BC8B
:102A1C00704780B483B000AF786000BF0C37BD4600
:102A2C0080BC704780B483B000AF786000BF0C37B7
:102A3C00BD4680BC7047000080B485B000AF7860A4
:102A4C0039607B681B68FB607B682F4A93420BD014
:102A5C007B68B3F1804F07D07B682C4A934203D03C
:102A6C007B682B4A934208D1FB6823F07003FB6010
:102A7C003B685B68FA681343FB607B68224A9342AD
:102A8C000BD07B68B3F1804F07D07B681F4A934211
:102A9C0003D07B681E4A934208D1FB6823F4407331
:102AAC00FB603B68DB68FA681343FB60FB6823F050
:102ABC0080023B685B691343FB607B68FA681A60B1
:102ACC003B689A687B68DA623B681A687B689A6232
:102ADC007B680D4A934203D13B681A697B681A6381
:102AEC007B6801225A617B681B6903F00103002B90
:102AFC0005D07B681B6923F001027B681A6100BF5B
:102B0C001437BD4680BC7047002C014000040040C7
:102B1C000008004080B487B000AFF860B9607A60FC
:102B2C00FB681B6A7B61FB681B6A23F00102FB6874
:102B3C001A62FB689B693B613B6923F0F0033B61C4
:102B4C007B681B013A6913433B617B6923F00A03E1
:102B5C007B617A69BB6813437B61FB683A699A6154
:102B6C00FB687A691A6200BF1C37BD4680BC70478F
:102B7C0080B487B000AFF860B9607A60FB681B6AFC
:102B8C007B61FB681B6A23F01002FB681A62FB680E
:102B9C009B693B613B6923F470433B617B681B037E
:102BAC003A6913433B617B6923F0A0037B61BB68EB
:102BBC001B017A6913437B61FB683A699A61FB6874
:102BCC007A691A6200BF1C37BD4680BC704780B45E
:102BDC0085B000AF786039607B689B68FB60FB68F0
:102BEC0023F07003FB603A68FB68134343F0070360
:102BFC00FB607B68FA689A6000BF1437BD4680BCE6
:102C0C00704780B487B000AFF860B9607A603B6001
:102C1C00FB689B687B617B6923F47F437B613B682A
:102C2C001A027B681A43BB6813437A6913437B61AE
:102C3C00FB687A699A6000BF1C37BD4680BC704740
:102C4C0080B485B000AF786039607B6893F83C3015
:102C5C00012B01D1022346E07B68012283F83C2042
:102C6C007B68022283F83D207B681B685B68FB60F5
:102C7C007B681B689B68BB60FB6823F07003FB6080
:102C8C003B681B68FA681343FB607B681B68FA6837
:102C9C005A607B681B68164A93420ED07B681B688F
:102CAC00B3F1804F09D07B681B68124A934204D061
:102CBC007B681B68104A93420CD1BB6823F08003DD
:102CCC00BB603B685B68BA681343BB607B681B687E
:102CDC00BA689A607B68012283F83D207B680022E9
:102CEC0083F83C20002318461437BD4680BC70473F
:102CFC00002C0140000400400008004080B483B068
:102D0C0000AF786000BF0C37BD4680BC704780B404
:102D1C0083B000AF786000BF0C37BD4680BC7047F5
:102D2C0080B582B000AF78607B68002B01D10123A5
:102D3C0042E07B6893F84130DBB2002B06D17B6814
:102D4C00002283F840207868FEF7BEF97B682422C5
:102D5C0083F841207B681B68DA687B681B6822F467
:102D6C000052DA60786800F0B7FD7B681B681A695E
:102D7C007B681B6822F490421A617B681B685A6955
:102D8C007B681B6822F02A025A617B681B68DA6830
:102D9C007B681B6842F40052DA607B6800225A643C
:102DAC007B68202283F841207B68202283F8422014
:102DBC007B6800225A63002318460837BD4680BD45
:102DCC0080B58AB002AFF860B9603B601346FB80F7
:102DDC0000237B61FB6893F84130DBB2202B75D16B
:102DEC00BB68002B02D0FB88002B01D101236EE0C5
:102DFC00FB6800225A64FB68212283F84120FEF70D
:102E0C0037FB7861FB68FA889A84FB68FA88DA8465
:102E1C00FB689B68B3F5805F08D1FB681B69002BCE
:102E2C0004D10023FB61BB68BB6103E0BB68FB61A1
:102E3C000023BB612EE03B6800937B69002280215C
:102E4C00F86800F01CFB0346002B05D0FB68202221
:102E5C0083F8412003233AE0FB69002B0BD1BB69BB
:102E6C001B881A46FB681B68C2F308025A60BB69D0
:102E7C000233BB6107E0FB691A78FB681B685A6078
:102E8C00FB690133FB61FB68DB8C9BB2013B9AB2A3
:102E9C00FB68DA84FB68DB8C9BB2002BCBD13B68E4
:102EAC0000937B6900224021F86800F0E8FA0346A1
:102EBC00002B05D0FB68202283F84120032306E079
:102ECC00FB68202283F84120002300E002231846EF
:102EDC002037BD4680BD80B584B000AFF860B960C6
:102EEC001346FB80FB6893F84230DBB2202B12D1E7
:102EFC00BB68002B02D0FB88002B01D101230BE017
:102F0C00FB6800221A63FB881A46B968F86800F05F
:102F1C000FFB034600E0022318461037BD4680BD68
:102F2C0080B5BAB000AF78607B681B681B68C7F8C7
:102F3C00E4307B681B68DB68C7F8E0307B681B6893
:102F4C005B69C7F8DC300023C7F8D8300023C7F81A
:102F5C00D430D7F8E43003F00F03C7F8D830D7F8E3
:102F6C00D830002B0FD1D7F8E43003F02003002B1E
:102F7C0009D0D7F8E03003F02003002B03D0786899
:102F8C0000F0ECFB5BE2D7F8D830002B00F0DE80D1
:102F9C00D7F8DC3003F00103002B06D1D7F8E03072
:102FAC0003F49073002B00F0D180D7F8E43003F0D9
:102FBC000103002B0BD0D7F8E03003F48073002B07
:102FCC0005D07B685B6C43F001027B685A64D7F8D0
:102FDC00E43003F00403002B0BD0D7F8DC3003F003
:102FEC000103002B05D07B685B6C43F002027B680D
:102FFC005A64D7F8E43003F00203002B0BD0D7F857
:10300C00DC3003F00103002B05D07B685B6C43F0D4
:10301C0004027B685A64D7F8E43003F00803002BF1
:10302C0011D0D7F8E03003F02003002B05D1D7F8EE
:10303C00DC3003F00103002B05D07B685B6C43F0A4
:10304C0008027B685A647B685B6C002B00F0F28191
:10305C00D7F8E43003F02003002B08D0D7F8E03089
:10306C0003F02003002B02D0786800F077FB7B681C
:10307C001B685B6903F04003002B14BF0123002382
:10308C00DBB2C7F8D4307B685B6C03F00803002B11
:10309C0003D1D7F8D430002B4FD0786800F081FAE8
:1030AC007B681B685B6903F04003002B41D07B6895
:1030BC001B681433C7F89C30D7F89C3053E8003F9A
:1030CC00C7F89830D7F8983023F04003C7F8D030C1
:1030DC007B681B681433D7F8D020C7F8A820C7F832
:1030EC00A430D7F8A410D7F8A82041E80023C7F8DB
:1030FC00A030D7F8A030002BD9D17B68DB6B002B2C
:10310C0013D07B68DB6B7E4A5A637B68DB6B18469B
:10311C00FFF790F80346002B16D07B68DB6B5B6BDC
:10312C007A68D26B104698470EE0786800F093F9F5
:10313C000AE0786800F08FF906E0786800F08BF907
:10314C007B6800225A6475E100BF73E17B681B6BDE
:10315C00012B40F04F81D7F8E43003F01003002B23
:10316C0000F04881D7F8E03003F01003002B00F09A
:10317C0041810023BB607B681B681B68BB607B685C
:10318C001B685B68BB60BB687B681B685B6903F092
:10319C004003002B00F0B6807B68DB6B1B685B6820
:1031AC00A7F8BE30B7F8BE30002B00F045817B6825
:1031BC009B8DB7F8BE209A4280F03E817B68B7F8B1
:1031CC00BE20DA857B68DB6B9B69202B00F0888046
:1031DC007B681B680C33C7F88830D7F8883053E805
:1031EC00003FC7F88430D7F8843023F48073C7F8D5
:1031FC00B8307B681B680C33D7F8B820C7F894201C
:10320C00C7F89030D7F89010D7F8942041E80023F5
:10321C00C7F88C30D7F88C30002BD9D17B681B6861
:10322C0014337B677B6F53E8003F3B673B6F23F0A6
:10323C000103C7F8B4307B681B681433D7F8B4208B
:10324C00C7F88020FB67F96FD7F8802041E800238E
:10325C00BB67BB6F002BE1D17B681B6814333B66EB
:10326C003B6E53E8003FFB65FB6D23F04003C7F852
:10327C00B0307B681B681433D7F8B020FA66BB6695
:10328C00B96EFA6E41E800237B667B6E002BE3D1AE
:10329C007B68202283F842207B6800221A637B68BB
:1032AC001B680C33FB64FB6C53E8003FBB64BB6CCA
:1032BC0023F01003C7F8AC307B681B680C33D7F8CD
:1032CC00AC20BA657B65796DBA6D41E800233B652E
:1032DC003B6D002BE3D17B68DB6B1846FEF76FFF71
:1032EC007B6802225A637B689A8D7B68DB8D9BB26C
:1032FC00D31A9BB21946786800F0B6F89CE000BF70
:10330C00733600087B689A8D7B68DB8D9BB2D31A71
:10331C00A7F8CE307B68DB8D9BB2002B00F08E8043
:10332C00B7F8CE30002B00F089807B681B680C331B
:10333C00BB63BB6B53E8003F7B637B6B23F49073E5
:10334C00C7F8C8307B681B680C33D7F8C8207A6480
:10335C003B64396C7A6C41E80023FB63FB6B002BFC
:10336C00E3D17B681B6814337B627B6A53E8003FB4
:10337C003B623B6A23F00103C7F8C4307B681B68CF
:10338C001433D7F8C4203A63FB62F96A3A6B41E80C
:10339C000023BB62BB6A002BE3D17B68202283F83D
:1033AC0042207B6800221A637B681B680C333B61EC
:1033BC003B6953E8003FFB60FB6823F01003C7F840
:1033CC00C0307B681B680C33D7F8C020FA61BB6136
:1033DC00B969FA6941E800237B617B69002BE3D171
:1033EC007B6802225A63B7F8CE301946786800F031
:1033FC003BF823E0D7F8E43003F08003002B09D02E
:10340C00D7F8E03003F08003002B03D0786800F08D
:10341C003EF914E0D7F8E43003F04003002B0ED053
:10342C00D7F8E03003F04003002B08D0786800F0A8
:10343C007DF904E000BF02E000BF00E000BFE83708
:10344C00BD4680BD80B483B000AF786000BF0C3740
:10345C00BD4680BC704780B483B000AF786000BFBD
:10346C000C37BD4680BC704780B483B000AF786029
:10347C000B467B8000BF0C37BD4680BC704780B5C7
:10348C0086B000AFF860B9603B601346FB713BE05F
:10349C003B6AB3F1FF3F37D0FDF7EAFF02463B68CA
:1034AC00D31A3A6A9A4202D33B6A002B01D1032306
:1034BC003AE0FB681B68DB6803F00403002B23D0A5
:1034CC00BB68802B20D0BB68402B1DD0FB681B68D1
:1034DC001B6803F00803082B16D100237B61FB68E3
:1034EC001B681B687B61FB681B685B687B617B6985
:1034FC00F86800F056F8FB6808225A64FB68002252
:10350C0083F8402001230FE0FB681B681A68BB6836
:10351C001340BA689A420CBF01230023DBB21A464F
:10352C00FB799A42B4D0002318461837BD4680BDAB
:10353C0080B485B000AFF860B9601346FB80FB68BF
:10354C00BA689A62FB68FA889A85FB68FA88DA8509
:10355C00FB6800225A64FB68222283F84220FB6835
:10356C001B69002B07D0FB681B68DA68FB681B68BB
:10357C0042F48072DA60FB681B685A69FB681B684E
:10358C0042F001025A61FB681B68DA68FB681B6831
:10359C0042F02002DA60002318461437BD4680BC86
:1035AC00704780B495B000AF78607B681B680C33B3
:1035BC007B637B6B53E8003F3B633B6B23F4907363
:1035CC00FB647B681B680C33FA6C3A64FB63F96B25
:1035DC003A6C41E80023BB63BB6B002BE5D17B68E5
:1035EC001B6814333B623B6A53E8003FFB61FB6989
:1035FC0023F00103BB647B681B681433BA6CFA625A
:10360C00BB62B96AFA6A41E800237B627B6A002BD1
:10361C00E5D17B681B6B012B19D17B681B680C33C4
:10362C00FB60FB6853E8003FBB60BB6823F01003F2
:10363C007B647B681B680C337A6CBA617B6179693B
:10364C00BA6941E800233B613B69002BE5D17B68FB
:10365C00202283F842207B6800221A6300BF543773
:10366C00BD4680BC704780B584B000AF78607B6885
:10367C005B6AFB60FB680022DA85FB680022DA8457
:10368C00F868FFF7E8FE00BF1037BD4680BD80B478
:10369C0085B000AF78607B6893F84130DBB2212BAA
:1036AC003ED17B689B68B3F5805F14D17B681B6946
:1036BC00002B10D17B681B6AFB60FB681B881A46C9
:1036CC007B681B68C2F308025A607B681B6A9A1CF1
:1036DC007B681A6208E07B681B6A591C7A68116265
:1036EC001A787B681B685A607B68DB8C9BB2013B49
:1036FC009BB27A681946D184002B0FD17B681B686A
:10370C00DA687B681B6822F08002DA607B681B68D1
:10371C00DA687B681B6842F04002DA60002300E044
:10372C00022318461437BD4680BC704780B582B062
:10373C0000AF78607B681B68DA687B681B6822F0D6
:10374C004002DA607B68202283F841207868FFF71A
:10375C0079FE002318460837BD4680BD80B58CB075
:10376C0000AF78607B6893F84230DBB2222B40F0DC
:10377C00AE807B689B68B3F5805F17D17B681B6953
:10378C00002B13D10023FB627B689B6ABB627B68B6
:10379C001B685B689BB2C3F308039AB2BB6A1A80BE
:1037AC007B689B6A9A1C7B689A6226E07B689B6AA2
:1037BC00FB620023BB627B689B68B3F5805F07D01C
:1037CC007B689B68002B0AD17B681B69002B06D198
:1037DC007B681B685B68DAB2FB6A1A7008E07B686E
:1037EC001B685B68DBB203F07F03DAB2FB6A1A700A
:1037FC007B689B6A5A1C7B689A627B68DB8D9BB2E8
:10380C00013B9BB27A681946D185002B5DD17B6850
:10381C001B68DA687B681B6822F02002DA607B6820
:10382C001B68DA687B681B6822F48072DA607B683C
:10383C001B685A697B681B6822F001025A617B681D
:10384C00202283F842207B6800225A637B681B6B22
:10385C00012B35D17B6800221A637B681B680C3303
:10386C007B617B6953E8003F3B613B6923F01003AC
:10387C007B627B681B680C337A6A3A62FB61F9697C
:10388C003A6A41E80023BB61BB69002BE5D17B6838
:10389C001B681B6803F01003102B0AD10023FB607C
:1038AC007B681B681B68FB607B681B685B68FB6044
:1038BC00FB687B689B8D19467868FFF7D5FD02E0A5
:1038CC007868FDF757F8002302E0002300E002239C
:1038DC0018463037BD4680BD80B584B000AF7860E7
:1038EC007B681B681B6923F440517B68DA687B6832
:1038FC001B680A431A617B689A687B681B691A43C8
:10390C007B685B691343BB607B681B68DB6823F4D3
:10391C00B05323F00C037A681268B9680B43D36078
:10392C007B681B685B6923F440717B689A697B68D0
:10393C001B680A435A617B681B682C4A934203D16B
:10394C00FEF7A2F9F86002E0FEF78AF9F860FA686F
:10395C0013469B0013449A001A447B685B689B00D7
:10396C00B2FBF3F3224AA2FB03235B091901FA68A9
:10397C0013469B0013449A001A447B685B689B00B7
:10398C00B2FBF3F21A4BA3FB02035B09642000FBAE
:10399C0003F3D31A1B013233154AA2FB03235B0931
:1039AC0003F0F0031944FA6813469B0013449A0081
:1039BC001A447B685B689B00B2FBF3F20C4BA3FBD5
:1039CC0002035B09642000FB03F3D31A1B0132339F
:1039DC00074AA2FB03235B0903F00F027B681B68F9
:1039EC000A449A6000BF1037BD4680BD00380140C4
:1039FC001F85EB5180B400AF00BFBD4680BC704743
:103A0C00FFF7F8FF0B480C490C4A002302E0D4588E
:103A1C00C4500433C4188C42F9D3094A094C00230E
:103A2C0001E013600432A242FBD3FCF799FBFDF7D3
:103A3C005DF87047000000200C000020F83A0008E8
:103A4C000C000020A8030020FEE70000F8B500BF22
:103A5C00F8BC08BC9E467047F8B500BFF8BC08BC63
:043A6C009E467047BB
:103A700052533438355F4348315F50726F6365731A
:103A8000730A000052657475726E204348310A0053
:103A900052533438355F4348335F50726F636573F8
:103AA000730A000052657475726E204348330A0031
:103AB000535441525455500A0000000002030405BB
:103AC000060708090A0B0C0D0E0F1010010200006A
:103AD00000000000000000000102030406070809BE
:083AE0000000000001020304D4
:083AE80064C6FF7F010000002D
:043AF0003101000898
:043AF4000D010008B8
:0C3AF800100000000100000000127A0025
:0400000508003A0DA8
:00000001FF
