:020000040800F2
:1000000000500020CD430008ED1A0008F51A000842
:10001000FD1A0008051B00080D1B00080000000069
:10002000000000000000000000000000151B000898
:10003000211B0008000000002D1B0008391B0008D0
:10004000154400081544000815440008154400082C
:10005000154400081544000815440008154400081C
:10006000154400081544000815440008154400080C
:1000700015440008154400081544000815440008FC
:1000800015440008154400081544000815440008EC
:1000900015440008154400081544000815440008DC
:1000A00015440008451B00081544000815440008C5
:1000B000591B00086D1B0008811B0008154400082F
:1000C00015440008154400081544000815440008AC
:1000D00015440008951B0008A91B0008BD1B00085B
:1000E00015440008154400081544000800000000ED
:1000F0000000000000000000000000000000000000
:0C01000000000000000000005FF808F1A3
:10010C0010B5054C237833B9044B13B10448AFF345
:10011C0000800123237010BD6C0000200000000043
:10012C009851000808B5034B1BB103490348AFF3C2
:10013C00008008BD000000007000002098510008ED
:10014C00034613F8012B002AFBD1181A013870470B
:10015C00002310B50446C0E90033C0E904338360C2
:10016C0081814366C2818361194608225C3000F0AC
:10017C00F7F80D4B246263620C4BA3620C4BE362E9
:10018C000C4B23630C4B9C4206D003F16802944247
:10019C0002D0D0339C4205D104F15800BDE8104088
:1001AC0000F050B910BD00BFE502000807030008BD
:1001BC003F0300086503000888000020024A034939
:1001CC00034800F06BB800BF000000204107000896
:1001DC001000002041680C4B10B59942044601D028
:1001EC0000F0A8FAA168094B994202D0204600F011
:1001FC00A1FAE168064B994204D02046BDE81040B4
:10020C0000F098BA10BD00BF88000020F00000205C
:10021C00580100200C4B0D4A10B504211A600C48F3
:10022C000022FFF795FF0A4B01221C46092103F11E
:10023C006800FFF78DFF04F1D0000222BDE81040EA
:10024C001221FFF785BF00BFC0010020C9010008C3
:10025C0088000020014800F0F6B800BFC90100205A
:10026C00014800F0F1B800BFC901002010B50446E8
:10027C00FFF7F0FF236A1BB1BDE81040FFF7F0BF9A
:10028C00044B2362044B1B68002BF5D1FFF7C2FF14
:10029C00F2E700BFE1010008C00100202DE9F8439E
:1002AC000746884614460026D4E90195B9F10109A0
:1002BC0005D52468002CF7D13046BDE8F883AB890E
:1002CC00012B07D9B5F90E30013303D02946384636
:1002DC00C04706436835E9E710B50C46B1F90E1076
:1002EC0000F068F80028ABBF636DA3891B1823F4DA
:1002FC008053ACBF6365A38110BD2DE9F0411F464F
:10030C008B890546DB050C46164605D502230022D3
:10031C00B1F90E1000F03CF8A389324623F4805357
:10032C00A38128463B46B4F90E10BDE8F04100F01D
:10033C0053B810B50C46B1F90E1000F029F8B4F909
:10034C000C30421C0BBF23F4805343F48053A38125
:10035C00A38118BF606510BDB1F90E1000F008B88C
:10036C0003460244934200D1704703F8011BF9E79E
:10037C0038B50023054D044608462B6003F0EFFF0B
:10038C00431C02D12B6803B1236038BDC40100208B
:10039C0038B50446084611460022054D2A601A4617
:1003AC0004F001F8431C02D12B6803B1236038BD63
:1003BC00C401002038B50446084611460022054DFC
:1003CC002A601A4603F092FF431C02D12B6803B13A
:1003DC00236038BDC401002038B5044608461146D8
:1003EC000022054D2A601A4603F09DFF431C02D1E2
:1003FC002B6803B1236038BDC401002070B5002602
:10040C000C4D0D4B5B1B9C10A64209D1002604F031
:10041C00BDFE0A4D0A4B5B1B9C10A64205D170BD5C
:10042C0055F8043B98470136EEE755F8043B9847DE
:10043C000136F2E768530008685300086853000857
:10044C006C530008704770477047000038B505467C
:10045C00002940D051F8043C0C1F002BB8BFE41805
:10046C0000F0DEF81C4A136833B963601460284648
:10047C00BDE8384000F0DAB8A34208D9206821184A
:10048C008B4201BF19685B6809182160EDE71A46B9
:10049C005B680BB1A342FAD911685018A0420BD17A
:1004AC0020680144501883421160E0D118685B68E1
:1004BC00084410605360DAE702D90C232B60D6E7AE
:1004CC00206821188B4201BF19685B6809182160EC
:1004DC0063605460CBE738BDD001002070B50F4E7F
:1004EC000C463168054611B900F04CF930602146D4
:1004FC00284600F047F9431C03D14FF0FF34204647
:10050C0070BDC41C24F00304A042F8D0211A284664
:10051C0000F038F90130F2D1EFE700BFCC01002038
:10052C002DE9F843CD1C25F0030508350C2D38BFFB
:10053C000C25002D064601DBA94204D90C2333609F
:10054C000020BDE8F883DFF8D48000F069F8D8F813
:10055C0000301C4644BB29463046FFF7BFFF431C06
:10056C00044658D1D8F800402746002F43D1002C20
:10057C004BD023683946304604EB030900F002F9EE
:10058C00814542D1216830466D1A2946FFF7A6FFF6
:10059C0001303AD023682B442360D8F800305A68D5
:1005AC0062BBC8F800700FE02268521B20D40B2AE3
:1005BC0017D96119A342256018BF5960636808BF39
:1005CC00C8F8001062514B60304600F02FF804F16F
:1005DC000B00231D20F00700C21A1CBF1B1AA350CE
:1005EC00AFE76268A3420CBFC8F800205A60EBE783
:1005FC0023466468AEE73C467F68B6E71A465B68FC
:10060C00A342FBD100235360DEE70C23304633605A
:10061C0000F00CF894E70560D6E700BFD00100208D
:10062C000148FFF710BF00BFC80100200148FFF7C9
:10063C000BBF00BFC8010020B1F90C20F8B516079C
:10064C0005460C4651D44B68002B02DC0B6C002B7E
:10065C0049DDE66A002E46D0002312F480522F6842
:10066C002B6031D0626DA389590705D56368D21A06
:10067C00636B0BB1236CD21A00232846E66A216AFD
:10068C00B047421CB4F90C3006D129681D2945D855
:10069C00274ACA40D60741D5002262602269D90494
:1006AC00226004D5421C01D12B6803B96065616BD3
:1006BC002F60C1B104F14403994202D02846FFF7E0
:1006CC00C5FE002363630EE001232846216AB04770
:1006DC000246501CC7D12B68002BC4D01D2B01D057
:1006EC00162B19D12F6000201DE00F69002FFAD0B6
:1006FC00930718BF00230E6808BF4B69F61B0F60E9
:10070C008B60002EEFDD33463A462846216AD4F83A
:10071C0028C0E047002807DCB4F90C304FF0FF305C
:10072C0043F04003A381F8BD0744361AE9E700BF44
:10073C000100402038B50B6905460C4613B900255D
:10074C00284638BD18B1036A0BB9FFF78FFDB4F911
:10075C000C30002BF3D0626ED00704D4990502D470
:10076C00A06DFFF770FE28462146FFF765FF636E0C
:10077C000546DA07E4D4A3899B05E1D4A06DFFF705
:10078C0063FEDDE738B50023054D044608462B60B3
:10079C0003F054FD431C02D12B6803B1236038BD18
:1007AC00C401002080B594B000AF07F128032822C3
:1007BC0000211846FFF7D4FD07F1140300221A603C
:1007CC005A609A60DA601A613B1D00221A605A6006
:1007DC009A60DA600923BB624FF48033FB6200231A
:1007EC003B630123BB6301233B6402237B644FF413
:1007FC008033BB644FF48013FB6407F12803184665
:10080C0001F098FA0346002B01D000F0B3FD0F2342
:10081C007B610223BB610023FB614FF480633B626D
:10082C0000237B6207F114030121184601F004FD3B
:10083C000346002B01D000F09DFD02237B604FF49A
:10084C004043FB603B1D184601F084FE0346002B21
:10085C0001D000F08FFD00BF5037BD4680BD0000B9
:10086C0080B582B000AF01F0DFF9FFF79BFF00F01D
:10087C0087FD0023FB7115E000224FF400516848FE
:10088C0002F0A2F8642001F031FA01224FF4005179
:10089C00634802F099F84FF4C87001F027FAFB791D
:1008AC000133FB71FB79042BE6D900F013FE00F049
:1008BC0061FE00F0ABFE00F0F7FE00F091F962B6BD
:1008CC0000BF584802F0A8FA574802F0A5FA57485A
:1008DC0002F0A2FA564802F09FFA00F0ABFF00F0CB
:1008EC00D3FF00F0FBFF01225249534802F011FFE5
:1008FC0001225249524802F00CFF01225149524840
:10090C0002F007FF0023BB713DE0BB794F4A162173
:10091C0001FB03F31344D3F80200BB794B4A1621B5
:10092C0001FB03F313441B880022194602F04CF818
:10093C0000F08EF84FF47A7001F0D8F900F088F8D6
:10094C004FF47A7001F0D2F900F082F84FF47A701B
:10095C0001F0CCF9BB793D4A162101FB03F313449A
:10096C00D3F80200BB79394A162101FB03F3134477
:10097C001B880122194602F027F8642001F0B6F911
:10098C00BB790133BB71BB79032BBED900F060F886
:10099C004FF47A7001F0AAF900F05AF84FF47A701B
:1009AC0001F0A4F900F054F84FF47A7001F09EF9BC
:1009BC0000237B712BE07B79244A162101FB03F386
:1009CC001344143301221A707B79204A162101FB3F
:1009DC0003F3134403F10802002343F4A05343F040
:1009EC0003031380002353807B79184A162101FBE3
:1009FC0003F3134403F11002002343F4215343F097
:100A0C0011031380002353807B7901337B717B7935
:100A1C00022BD0D900BF00BF0837BD4680BD00BF38
:100A2C000010014098040020E0040020280500205C
:100A3C0070050020D4010020B8050020D50100204D
:100A4C0000060020D6010020480600209802002055
:100A5C0080B400AF00BFBD4680BC704780B500AF0E
:100A6C00242200212448FFF77BFC4222002123484A
:100A7C00FFF776FC204B4FF400421A801E4A0023ED
:100A8C0043F400635380002343F4804343F0010399
:100A9C009380194B0822DA80174B194A9A60164B2F
:100AAC0040229A81144A002343F44063D3810023EB
:100ABC0043F4804343F0010313820F4B80225A828C
:100ACC000D4B0F4A5A610C4B4FF480721A830A4A31
:100ADC00002343F440635383002343F4804343F0E7
:100AEC0001039383044B4FF40072DA83024B044AE4
:100AFC001A6200BF80BD00BFD8010020FC0100209D
:100B0C00000C014080B500AF582200211748FFF7B8
:100B1C0027FC164B01221A80144A002343F440632D
:100B2C005380002343F4804343F0010393800F4B25
:100B3C000222DA820D4B0E4A9A610C4B4FF4005292
:100B4C009A850A4A002343F44063D385002343F477
:100B5C00804343F001031386044B4FF48042A3F807
:100B6C004220024B024A5A6400BF80BD4002002062
:100B7C00000C014080B500AF582200211648FFF749
:100B8C00EFFB154B10221A80134A002343F4006329
:100B9C005380002343F4804343F0010393800E4BB6
:100BAC002022DA820C4B0D4A9A610B4B40229A851B
:100BBC00094A002343F40063D385002343F48043A4
:100BCC0043F001031386044B8022A3F84220024B0E
:100BDC00024A5A6400BF80BD980200200008014000
:100BEC0080B500AFFFF73AFFFFF78CFFFFF7C2FFAE
:100BFC0000BF80BD80B582B000AF03460A46FB71D2
:100C0C001346BB71BB79002B14D0FB79154A162106
:100C1C0001FB03F31344D3F80200FB79114A1621AC
:100C2C0001FB03F313441B889BB20022194601F00D
:100C3C00CBFE13E0FB790B4A162101FB03F31344A3
:100C4C00D3F80200FB79074A162101FB03F3134486
:100C5C001B889BB20122194601F0B6FE00BF083773
:100C6C00BD4680BD98020020B0B582B000AF002315
:100C7C00FB7164E0FB79364A162101FB03F3134444
:100C8C0014331B78002B57D0FB79314A162101FB0A
:100C9C0003F3134408331968FA792D48162302FB21
:100CAC0003F3034408335B68581C294C162505FBD9
:100CBC0002F2224408325060994205D3FB7901219B
:100CCC001846FFF797FF04E0FB7900211846FFF761
:100CDC0091FFFB791E4A162101FB03F313440833E1
:100CEC005A68FB791A49162000FB03F30B441033A6
:100CFC001B689A4220D3FB79154A162101FB03F39A
:100D0C001344083300221A7100225A7100229A717E
:100D1C000022DA71FB790E4A162101FB03F313440E
:100D2C00143300221A70FB79094A162101FB03F3D4
:100D3C001344153301221A70FB790133FB71FB79D3
:100D4C00022B97D900BF00BF0837BD46B0BD00BF0E
:100D5C009802002080B584B000AF0346FB710023DD
:100D6C00FB60FB79184603F051FB03F07DFB034657
:100D7C00DBB2FB60FB68DBB218461037BD4680BDAA
:100D8C0080B582B000AF0023FB710023FB718EE0B5
:100D9C00FB794B4A162101FB03F3134415331B78E3
:100DAC00002B00F08180474B1B685A1C45490A6098
:100DBC00DBB21846FFF7CEFF03461A46424B1A70B9
:100DCC00414B1B78DBB21A461346DB0013449A01E5
:100DDC00D21AFB7902F2C3723949162000FB03F3D5
:100DEC000B4408331A60C82200213848FFF7B8FAC0
:100DFC00374800F083FAFA79334B1B78DBB235496C
:100E0C00324803F06FFB0346DAB2334B1A702F48AB
:100E1C0000F074FA2B4B1B685A1C2A490A60DBB28F
:100E2C001846FFF797FF03461A46274B1A70FB79B3
:100E3C00234A162101FB03F3134408331A68224B8F
:100E4C001B78DBB219460B46DB000B449901CB1A1D
:100E5C001A44FB7902F629121949162000FB03F3F8
:100E6C000B4410331A60184B1B78DBB21A461B4923
:100E7C00164803F037FB0346DAB2174B1A701348C7
:100E8C0000F03CFAFB790E4A162101FB03F31344E4
:100E9C00143301221A70FB79094A162101FB03F362
:100EAC001344153300221A70FB790133FB71FB7963
:100EBC00022B7FF66DAF00BF00BF0837BD4680BD6B
:100ECC00980200205C000020F0020020CC030020DF
:100EDC00B0510008C051000894040020DC510008F7
:100EEC0080B582B000AF03463960FB711346BB80FE
:100EFC00FB79002B06D101224FF400611F4801F051
:100F0C0063FD08E0FB79022B05D101224FF48051DF
:100F1C001B4801F059FD012000F0E8FEFB79002B85
:100F2C0007D1BB880A33BA883968164802F066FBC9
:100F3C0009E0FB79022B06D1BB880A33BA883968E1
:100F4C00114802F05BFB012000F0D0FEFB79002B76
:100F5C0006D100224FF40061084801F035FD08E08D
:100F6C00FB79022B05D100224FF48051044801F08B
:100F7C002BFD00BF0837BD4680BD00BF00080140F7
:100F8C00000C0140B80500204806002080B582B056
:100F9C0000AF03463960FB713868FFF7D1F80346A0
:100FAC009AB2FB7939681846FFF79AFF00BF0837E9
:100FBC00BD4680BD80B500AF144B1B7803F0040315
:100FCC00DBB2002B1FD0124800F098F9114B93F8AC
:100FDC00643019460F4800F07FF90F490020FFF7E5
:100FEC00D5FF0C4B93F864301A460A490020FFF7E2
:100FFC0077FF682200210748FFF7B2F9034A1378FC
:10100C0023F00403137000BF80BD00BFF402002066
:10101C00F0510008F80200200452000880B500AF1F
:10102C00144B1B7803F00803DBB2002B1FD01248C3
:10103C0000F064F9114B93F8643019460F4800F036
:10104C004BF90F490220FFF7A1FF0C4B93F86430CA
:10105C001A460A490220FFF743FF6822002107487D
:10106C00FFF77EF9034A137823F00803137000BFCF
:10107C0080BD00BFF4020020105200086003002065
:10108C002452000880B582B000AF78607B681A6883
:10109C003C4B1B689A424ED13B4B1B6801333A4A7E
:1010AC0013603A4B93F86730002B1AD0384B1B78EF
:1010BC0003F00403DBB2002B13D1344BB3F86530CF
:1010CC009BB25A1C91B2314AA2F86510312B08D947
:1010DC002E4B002283F867202D4A137843F004032B
:1010EC0013702C4B93F86730002B1AD0284B1B78BD
:1010FC0003F00803DBB2002B13D1264BB3F8653099
:10110C009BB25A1C91B2234AA2F86510312B08D914
:10111C00204B002283F867201D4A137843F0080304
:10112C0013701B4B1B7803F01003DBB2002B25D084
:10113C00FFF79AFD22E07B681A68174B1B689A42EE
:10114C001CD1164B1B889BB25A1C91B2134A1180AE
:10115C00592B05D900224FF40051114801F034FCF1
:10116C000E4B1B889BB2632B08D901224FF4005104
:10117C000B4801F029FC094B00221A8000BF0837EC
:10118C00BD4680BD980400205C000020F8020020C1
:10119C00F402002060030020E0040020C8030020BB
:1011AC000010014080B582B000AF78607B681B688E
:1011BC003D4A934232D13D4B1B7803F00403DBB222
:1011CC00002B25D13A4B93F864305A1CD1B2384AD3
:1011DC0082F864101A46374B1978354B9954344BB6
:1011EC00002283F86520002283F86620304B012210
:1011FC0083F867202E4B93F86430632B08D9642254
:10120C0000212B48FFF7ACF8294B002283F864200F
:10121C0001222849284802F07CFA41E07B681B68CF
:10122C00264A934205D101222549264802F071FA3B
:10123C0036E07B681B68244A934231D11B4B1B78E8
:10124C0003F00803DBB2002B25D1204B93F864305C
:10125C005A1CD1B21D4A82F864101A461C4B1978DC
:10126C001A4B9954194B002283F86520002283F8FD
:10127C006620164B012283F86720144B93F86430D8
:10128C00632B08D9642200211048FFF769F80F4B33
:10129C00002283F8642003220D490E4802F039FA2B
:1012AC0000BF0837BD4680BD00380140F402002065
:1012BC00F8020020D4010020B805002000440040B2
:1012CC00D5010020000600200048004060030020EB
:1012DC00D60100204806002080B582B000AF7860AF
:1012EC000B467B807B887A887968034802F086F904
:1012FC0000BF0837BD4680BD0006002080B582B017
:10130C0000AF78607868FEF71BFF03469BB2194666
:10131C007868FFF7E1FF00BF0837BD4680BD0000CD
:10132C0080B500AFFFF79CFA0E48FFF7E7FF0E49B8
:10133C000020FFF72BFE0D490220FFF727FE0C4A79
:10134C00137843F010031370FFF734FEFFF766FEBB
:10135C00074B1B7803F01003DBB2002BF4D0FFF724
:10136C000FFDF1E7305200083C52000848520008CB
:10137C00F402002080B400AF72B600BF00BFFDE7DE
:10138C0080B588B000AF07F1100300221A605A60D4
:10139C009A60DA604B4B9B694A4A43F010039361A5
:1013AC00484B9B6903F01003FB60FB68454B9B6942
:1013BC00444A43F020039361424B9B6903F02003A2
:1013CC00BB60BB683F4B9B693E4A43F0040393618F
:1013DC003C4B9B6903F004037B607B68394B9B6936
:1013EC00384A43F008039361364B9B6903F00803BA
:1013FC003B603B6801224FF40761334801F0E4FA8B
:10140C0001228021304801F0DFFA012201212F480E
:10141C0001F0DAFA012247F202012C4801F0D4FA69
:10142C0000224FF400512A4801F0CEFA4FF4005339
:10143C003B6101237B610023BB610223FB6107F14C
:10144C0010031946224801F03BF94FF40F633B613E
:10145C0001237B610023BB610223FB6107F11003B5
:10146C001946194801F02CF947F203033B6101239B
:10147C007B610023BB610223FB6107F1100319465A
:10148C00124801F01DF94FF400433B6100237B61CE
:10149C000123BB6107F1100319460B4801F010F949
:1014AC004FF472733B6100237B610123BB6107F135
:1014BC0010031946054801F003F900BF2037BD465B
:1014CC0080BD00BF0010024000080140000C01402C
:1014DC000010014080B586B000AF07F10803002270
:1014EC001A605A609A60DA603B4600221A605A60B1
:1014FC001E4B1F4A1A601D4B2F225A601B4B002299
:10150C009A601A4B40F2E732DA60184B00221A61EB
:10151C00164B00225A61154B00229A61134801F0B8
:10152C002CFC0346002B01D0FFF724FF4FF4805313
:10153C00BB6007F1080319460C4801F0AFFD0346E8
:10154C00002B01D0FFF716FF00233B6000237B60CC
:10155C003B461946054801F091FF0346002B01D08C
:10156C00FFF708FF00BF1837BD4680BD9804002068
:10157C00002C014080B586B000AF07F108030022B3
:10158C001A605A609A60DA603B4600221A605A6010
:10159C001D4B4FF080421A601B4B2F225A601A4B86
:1015AC0000229A60184B42F20F72DA60164B00223E
:1015BC001A61154B00229A61134801F0DEFB0346B9
:1015CC00002B01D0FFF7D6FE4FF48053BB6007F120
:1015DC00080319460C4801F061FD0346002B01D0AD
:1015EC00FFF7C8FE00233B6000237B603B46194697
:1015FC00054801F043FF0346002B01D0FFF7BAFE6C
:10160C0000BF1837BD4680BDE004002080B586B011
:10161C0000AF07F1080300221A605A609A60DA6082
:10162C003B4600221A605A601D4B1E4A1A601C4B26
:10163C002F225A601A4B00229A60194B40F2E73263
:10164C00DA60174B00221A61154B00229A6114487C
:10165C0001F093FB0346002B01D0FFF78BFE4FF4F8
:10166C008053BB6007F1080319460D4801F016FDC5
:10167C000346002B01D0FFF77DFE00233B600023C7
:10168C007B603B461946064801F0F8FE0346002BEA
:10169C0001D0FFF76FFE00BF1837BD4680BD00BFFD
:1016AC00280500200004004080B586B000AF07F18B
:1016BC00080300221A605A609A60DA603B460022E6
:1016CC001A605A601D4B1E4A1A601C4B2F225A601E
:1016DC001A4B00229A60194B40F2E732DA60174B32
:1016EC0000221A61154B00229A61144801F045FB47
:1016FC000346002B01D0FFF73DFE4FF48053BB6037
:10170C0007F1080319460D4801F0C8FC0346002BED
:10171C0001D0FFF72FFE00233B6000237B603B468C
:10172C001946064801F0AAFE0346002B01D0FFF72C
:10173C0021FE00BF1837BD4680BD00BF70050020DC
:10174C000008004080B586B000AF78607B681B68ED
:10175C00344A934214D1344B9B69334A43F40063AB
:10176C009361314B9B6903F400637B617B690022BD
:10177C000021192001F0CBFA192001F0E4FA4CE019
:10178C007B681B68B3F1804F14D1274BDB69264A69
:10179C0043F00103D361244BDB6903F001033B618C
:1017AC003B69002200211C2001F0B1FA1C2001F041
:1017BC00CAFA32E07B681B681C4A934214D11A4B5C
:1017CC00DB69194A43F00203D361174BDB6903F061
:1017DC000203FB60FB68002200211D2001F097FA38
:1017EC001D2001F0B0FA18E07B681B68104A934288
:1017FC0013D10D4BDB690C4A43F00403D3610A4B44
:10180C00DB6903F00403BB60BB68002200211E20CF
:10181C0001F07DFA1E2001F096FA00BF1837BD4684
:10182C0080BD00BF002C01400010024000040040AD
:10183C000008004080B500AF114B124A1A60104BE3
:10184C004FF416525A600E4B00229A600C4B002239
:10185C00DA600B4B00221A61094B0C225A61084BBF
:10186C0000229A61064B0022DA61054801F076FEEF
:10187C000346002B01D0FFF77DFD00BF80BD00BFEC
:10188C00B80500200038014080B500AF114B124A5A
:10189C001A60104B4FF461425A600E4B00229A6052
:1018AC000C4B0022DA600B4B00221A61094B0C2204
:1018BC005A61084B00229A61064B0022DA610548F6
:1018CC0001F04CFE0346002B01D0FFF753FD00BF87
:1018DC0080BD00BF000600200044004080B500AF72
:1018EC00114B124A1A60104B4FF416525A600E4BA1
:1018FC0000229A600C4B0022DA600B4B00221A611A
:10190C00094B0C225A61084B00229A61064B0022AB
:10191C00DA61054801F022FE0346002B01D0FFF7E7
:10192C0029FD00BF80BD00BF4806002000480040D4
:10193C0080B58CB000AF786007F1200300221A60EC
:10194C005A609A60DA607B681B685F4A93423AD1AE
:10195C005E4B9B695D4A43F4804393615B4B9B698F
:10196C0003F48043FB61FB69584B9B69574A43F076
:10197C0004039361554B9B6903F00403BB61BB6982
:10198C004FF400733B6202237B620323FB6207F17B
:10199C00200319464E4800F093FE4FF480633B62DF
:1019AC0000237B620023BB6207F1200319464848E1
:1019BC0000F086FE00220021252001F0A8F9252048
:1019CC0001F0C1F97CE07B681B68424A934238D134
:1019DC003E4BDB693D4A43F40033D3613B4BDB693F
:1019EC0003F400337B617B69384B9B69374A43F0C6
:1019FC0004039361354B9B6903F004033B613B6922
:101A0C0004233B6202237B620323FB6207F1200366
:101A1C0019462F4800F054FE08233B6200237B62DA
:101A2C000023BB6207F120031946294800F048FE49
:101A3C0000220021262001F06AF9262001F083F90A
:101A4C003EE07B681B68244A934239D11F4BDB690B
:101A5C001E4A43F48023D3611C4BDB6903F48023BF
:101A6C00FB60FB68194B9B69184A43F008039361B0
:101A7C00164B9B6903F00803BB60BB684FF4806393
:101A8C003B6202237B620323FB6207F120031946AE
:101A9C00124800F015FE4FF400633B6200237B629A
:101AAC000023BB6207F1200319460C4800F008FE26
:101ABC0000220021272001F02AF9272001F043F908
:101ACC0000BF3037BD4680BD0038014000100240D9
:101ADC00000801400044004000480040000C014058
:101AEC0080B400AF00BFFDE780B400AF00BFFDE7DE
:101AFC0080B400AF00BFFDE780B400AF00BFFDE7CE
:101B0C0080B400AF00BFFDE780B400AF00BFBD469E
:101B1C0080BC704780B400AF00BFBD4680BC70472E
:101B2C0080B400AF00BFBD4680BC704780B500AF2D
:101B3C0000F0C0F800BF80BD80B500AF024801F0D6
:101B4C00BDF900BF80BD00BF9804002080B500AF78
:101B5C00024801F0B3F900BF80BD00BFE0040020D3
:101B6C0080B500AF024801F0A9F900BF80BD00BFED
:101B7C002805002080B500AF024801F09FF900BF96
:101B8C0080BD00BF7005002080B500AF024801F099
:101B9C00E5FD00BF80BD00BFB805002080B500AFDB
:101BAC00024801F0DBFD00BF80BD00BF0006002035
:101BBC0080B500AF024801F0D1FD00BF80BD00BF71
:101BCC004806002080B485B000AF154B9B69144AC1
:101BDC0043F001039361124B9B6903F00103BB605B
:101BEC00BB680F4BDB690E4A43F08053D3610C4B3F
:101BFC00DB6903F080537B607B680A4B5B68FB609E
:101C0C00FB6823F0E063FB60FB6843F00073FB6050
:101C1C00044AFB68536000BF1437BD4680BC704754
:101C2C00001002400000014080B500AF084B1B685B
:101C3C00074A43F010031360032001F05DF80F20F6
:101C4C0000F008F8FFF7BEFF0023184680BD00BF68
:101C5C000020024080B582B000AF7860124B1A6849
:101C6C00124B1B7819464FF47A73B3FBF1F3B2FBAA
:101C7C00F3F3184601F075F80346002B01D001234D
:101C8C000EE07B680F2B0AD8002279684FF0FF30EA
:101C9C0001F03DF8064A7B681360002300E0012345
:101CAC0018460837BD4680BD68000020640000203F
:101CBC006000002080B400AF054B1B781A46054B22
:101CCC001B681344034A136000BFBD4680BC7047B9
:101CDC00640000209006002080B400AF024B1B680B
:101CEC001846BD4680BC70479006002080B584B075
:101CFC0000AF7860FFF7F0FFB8607B68FB60FB68B3
:101D0C00B3F1FF3F05D00A4B1B781A46FB6813440E
:101D1C00FB6000BFFFF7E0FF0246BB68D31AFA680E
:101D2C009A42F7D800BF00BF1037BD4680BD00BF38
:101D3C006400002080B586B000AF78607B68002B13
:101D4C0001D1012372E27B681B6803F00103002BB5
:101D5C0000F08780924B5B6803F00C03042B0CD0D3
:101D6C008F4B5B6803F00C03082B12D18C4B5B6818
:101D7C0003F48033B3F5803F0BD1894B1B6803F41C
:101D8C000033002B6CD07B685B68002B68D101237F
:101D9C004CE27B685B68B3F5803F06D1804B1B68D7
:101DAC007F4A43F4803313602EE07B685B68002B22
:101DBC000CD17B4B1B687A4A23F480331360784B2D
:101DCC001B68774A23F4802313601DE07B685B68F3
:101DDC00B3F5A02F0CD1724B1B68714A43F48023CE
:101DEC0013606F4B1B686E4A43F4803313600BE037
:101DFC006B4B1B686A4A23F480331360684B1B6877
:101E0C00674A23F4802313607B685B68002B13D034
:101E1C00FFF762FF386108E0FFF75EFF02463B699F
:101E2C00D31A642B01D9032300E25D4B1B6803F426
:101E3C000033002BF0D014E0FFF74EFF386108E0C0
:101E4C00FFF74AFF02463B69D31A642B01D90323DF
:101E5C00ECE1534B1B6803F40033002BF0D100E092
:101E6C0000BF7B681B6803F00203002B63D04C4B54
:101E7C005B6803F00C03002B0BD0494B5B6803F041
:101E8C000C03082B1CD1464B5B6803F48033002BEE
:101E9C0016D1434B1B6803F00203002B05D07B6863
:101EAC001B69012B01D00123C0E13D4B1B6823F0C2
:101EBC00F8027B685B69DB00394913430B603AE03D
:101ECC007B681B69002B20D0364B01221A60FFF770
:101EDC0003FF386108E0FFF7FFFE02463B69D31AA7
:101EEC00022B01D90323A1E12D4B1B6803F0020344
:101EFC00002BF0D02A4B1B6823F0F8027B685B693F
:101F0C00DB00274913430B6015E0264B00221A60B7
:101F1C00FFF7E2FE386108E0FFF7DEFE02463B69A0
:101F2C00D31A022B01D9032380E11D4B1B6803F04C
:101F3C000203002BF0D17B681B6803F00803002B15
:101F4C003AD07B689B69002B19D0174B01221A6081
:101F5C00FFF7C2FE386108E0FFF7BEFE02463B69A0
:101F6C00D31A022B01D9032360E10D4B5B6A03F0FA
:101F7C000203002BF0D0012000F0CEFA1CE00A4B3B
:101F8C0000221A60FFF7A8FE38610FE0FFF7A4FEED
:101F9C0002463B69D31A022B08D9032346E100BF42
:101FAC00001002400000424280044242924B5B6AA5
:101FBC0003F00203002BE9D17B681B6803F00403D8
:101FCC00002B00F0A6800023FB758B4BDB6903F024
:101FDC008053002B0DD1884BDB69874A43F080532B
:101FEC00D361854BDB6903F08053BB60BB68012375
:101FFC00FB75824B1B6803F48073002B18D17F4B4D
:10200C001B687E4A43F480731360FFF765FE3861EA
:10201C0008E0FFF761FE02463B69D31A642B01D935
:10202C00032303E1754B1B6803F48073002BF0D082
:10203C007B68DB68012B06D16F4B1B6A6E4A43F041
:10204C00010313622DE07B68DB68002B0CD16A4B1B
:10205C001B6A694A23F001031362674B1B6A664AC9
:10206C0023F0040313621CE07B68DB68052B0CD1A6
:10207C00614B1B6A604A43F0040313625E4B1B6A9C
:10208C005D4A43F0010313620BE05B4B1B6A5A4A37
:10209C0023F001031362584B1B6A574A23F00403C5
:1020AC0013627B68DB68002B15D0FFF715FE3861D7
:1020BC000AE0FFF711FE02463B69D31A41F288325F
:1020CC00934201D90323B1E04B4B1B6A03F002038B
:1020DC00002BEED014E0FFF7FFFD38610AE0FFF7AC
:1020EC00FBFD02463B69D31A41F28832934201D977
:1020FC0003239BE0404B1B6A03F00203002BEED141
:10210C00FB7D012B05D13C4BDB693B4A23F0805313
:10211C00D3617B68DB69002B00F08780364B5B68F2
:10212C0003F00C03082B61D07B68DB69022B46D1D2
:10213C00334B00221A60FFF7CFFD386108E0FFF740
:10214C00CBFD02463B69D31A022B01D903236DE068
:10215C00294B1B6803F00073002BF0D17B681B6AC2
:10216C00B3F5803F08D1244B5B6823F400327B68C5
:10217C009B68214913434B601F4B5B6823F474121B
:10218C007B68196A7B685B6A0B431B4913434B6082
:10219C001B4B01221A60FFF79FFD386108E0FFF727
:1021AC009BFD02463B69D31A022B01D903233DE068
:1021BC00114B1B6803F00073002BF0D035E0104B73
:1021CC0000221A60FFF788FD386108E0FFF784FDF4
:1021DC0002463B69D31A022B01D9032326E0064B96
:1021EC001B6803F00073002BF0D11EE07B68DB69E9
:1021FC00012B07D1012319E00010024000700040B0
:10220C00600042420B4B5B68FB60FB6803F480325E
:10221C007B681B6A9A4206D1FB6803F470127B68D8
:10222C005B6A9A4201D0012300E00023184618375C
:10223C00BD4680BD0010024080B584B000AF786010
:10224C0039607B68002B01D10123D0E06A4B1B68FD
:10225C0003F007033A689A4210D9674B1B6823F0C6
:10226C00070265493B6813430B60634B1B6803F023
:10227C0007033A689A4201D00123B8E07B681B68D7
:10228C0003F00203002B20D07B681B6803F00403CF
:10229C00002B05D0594B5B68584A43F4E0635360FC
:1022AC007B681B6803F00803002B05D0534B5B685D
:1022BC00524A43F460535360504B5B6823F0F00276
:1022CC007B689B684D4913434B607B681B6803F02C
:1022DC000103002B40D07B685B68012B07D1474B77
:1022EC001B6803F40033002B15D101237FE07B68BE
:1022FC005B68022B07D1414B1B6803F00073002B6A
:10230C0009D1012373E03D4B1B6803F00203002B42
:10231C0001D101236BE0394B5B6823F003027B682E
:10232C005B68364913434B60FFF7D6FCF8600AE054
:10233C00FFF7D2FC0246FB68D31A41F28832934273
:10234C0001D9032353E02D4B5B6803F00C027B682F
:10235C005B689B009A42EBD1274B1B6803F0070389
:10236C003A689A4210D2244B1B6823F00702224988
:10237C003B6813430B60204B1B6803F007033A6860
:10238C009A4201D0012332E07B681B6803F00403FE
:10239C00002B08D0194B5B6823F4E0627B68DB6888
:1023AC00164913434B607B681B6803F00803002B32
:1023BC0009D0124B5B6823F460527B681B69DB000D
:1023CC000E4913434B6000F021F802460B4B5B683F
:1023DC001B0903F00F030A49CB5C22FA03F3094AE9
:1023EC001360094B1B681846FFF734FC0023184692
:1023FC001037BD4680BD00BF0020024000100240D7
:10240C0068520008680000206000002080B487B08B
:10241C0000AF0023FB600023BB6000237B61002323
:10242C007B6000233B611E4B5B68FB60FB6803F029
:10243C000C03042B02D0082B03D027E0194B3B6173
:10244C0027E0FB689B0C03F00F03174AD35C7B60FF
:10245C00FB6803F48033002B10D0114B5B685B0CD2
:10246C0003F00103114AD35CBB607B680D4A03FB8C
:10247C0002F2BB68B2FBF3F37B6104E07B680C4AAD
:10248C0002FB03F37B617B693B6102E0054B3B6123
:10249C0000BF3B6918461C37BD4680BC704700BF67
:1024AC000010024000127A005452000864520008D6
:1024BC0000093D0080B400AF024B1B681846BD46B6
:1024CC0080BC70476800002080B500AFFFF7F2FFBA
:1024DC000246054B5B681B0A03F007030349CB5C00
:1024EC0022FA03F3184680BD00100240785200080F
:1024FC0080B500AFFFF7DEFF0246054B5B68DB0AD9
:10250C0003F007030349CB5C22FA03F3184680BDA2
:10251C00001002407852000880B485B000AF78609B
:10252C000A4B1B680A4AA2FB03235B0A7A6802FB6C
:10253C0003F3FB6000BFFB685A1EFA60002BF9D155
:10254C0000BF00BF1437BD4680BC70476800002038
:10255C00D34D621080B586B000AF786000233B612C
:10256C000023FB607B681B6803F00103002B7DD00C
:10257C000023FB754F4BDB6903F08053002B0DD10F
:10258C004C4BDB694B4A43F08053D361494BDB69BD
:10259C0003F08053BB60BB680123FB75464B1B6883
:1025AC0003F48073002B18D1434B1B68424A43F44D
:1025BC0080731360FFF790FB386108E0FFF78CFB2A
:1025CC0002463B69D31A642B01D903236DE03A4BC5
:1025DC001B6803F48073002BF0D0364B1B6A03F49A
:1025EC004073FB60FB68002B2ED07B685B6803F4A8
:1025FC004073FA689A4227D02E4B1B6A23F440731F
:10260C00FB602E4B01221A602C4B00221A60294AC7
:10261C00FB681362FB6803F00103002B14D0FFF777
:10262C005BFB38610AE0FFF757FB02463B69D31AA4
:10263C0041F28832934201D9032336E01D4B1B6AC9
:10264C0003F00203002BEED01A4B1B6A23F44072EA
:10265C007B685B68174913430B62FB7D012B05D12B
:10266C00144BDB69134A23F08053D3617B681B68DE
:10267C0003F00203002B08D00E4B5B6823F440429E
:10268C007B689B680B4913434B607B681B6803F0AA
:10269C001003002B08D0074B5B6823F480027B6887
:1026AC00DB68044913434B60002318461837BD46BA
:1026BC0080BD00BF00100240007000404004424248
:1026CC0080B48BB000AF7860396000237B6200234C
:1026DC003B6269E101227B6A02FA03F3FB613B680E
:1026EC001B68FA691340BB61BA69FB699A4240F0F6
:1026FC0058813B685B689A4A93425ED0984A9342F1
:10270C0075D8984A934258D0964A93426FD8964AB5
:10271C00934252D0944A934269D8944A93424CD0F3
:10272C00924A934263D8924A934246D0904A93423B
:10273C005DD8122B2AD8122B59D801A252F823F0AB
:10274C00C7270008A1270008B3270008F5270008B1
:10275C00FB270008FB270008FB270008FB270008C5
:10276C00FB270008FB270008FB270008FB270008B5
:10277C00FB270008FB270008FB270008FB270008A5
:10278C00FB270008A9270008BD270008794A9342B7
:10279C0013D02CE03B68DB683B6229E03B68DB68CC
:1027AC0004333B6224E03B68DB6808333B621FE088
:1027BC003B68DB680C333B621AE03B689B68002B80
:1027CC0002D104233B6213E03B689B68012B05D1CB
:1027DC0008233B627B68FA691A6109E008233B62B3
:1027EC007B68FA695A6103E000233B6200E000BF9A
:1027FC00BB69FF2B01D87B6801E07B6804337B61EC
:10280C00BB69FF2B02D87B6A9B0002E07B6A083B0A
:10281C009B003B617B691A680F213B6901FA03F34A
:10282C00DB431A40396A3B6901FA03F31A437B69AB
:10283C001A603B685B6803F08053002B00F0B1809A
:10284C004D4B9B694C4A43F0010393614A4B9B6986
:10285C0003F00103BB60BB68484A7B6A9B080233E8
:10286C0052F82330FB607B6A03F003039B000F22BA
:10287C0002FA03F3DB43FA681340FB607B68404ABF
:10288C00934213D07B683F4A93420DD07B683E4AFB
:10289C00934207D07B683D4A934201D1032306E063
:1028AC00042304E0022302E0012300E000237A6AFF
:1028BC0002F0030292009340FA681343FB602F4925
:1028CC007B6A9B080233FA6841F823203B685B68FB
:1028DC0003F48013002B06D02D4B9A682C49BB694E
:1028EC0013438B6006E02A4B9A68BB69DB4328498B
:1028FC0013408B603B685B6803F40013002B06D01D
:10290C00234BDA682249BB691343CB6006E0204BAA
:10291C00DA68BB69DB431E491340CB603B685B68DC
:10292C0003F40033002B06D0194B5A681849BB69C5
:10293C0013434B6006E0164B5A68BB69DB431449E2
:10294C0013404B603B685B6803F48033002B21D051
:10295C000F4B1A680E49BB6913430B6021E000BF93
:10296C000000321000003110000022100000211075
:10297C000000121000001110001002400000014075
:10298C0000080140000C01400010014000140140FF
:10299C00000401400B4B1A68BB69DB430949134027
:1029AC000B607B6A01337B623B681A687B6A22FA94
:1029BC0003F3002B7FF48EAE00BF00BF2C37BD4657
:1029CC0080BC70470004014080B483B000AF7860D5
:1029DC000B467B8013467B707B78002B03D07A8868
:1029EC007B681A6103E07B881A047B681A6100BF5C
:1029FC000C37BD4680BC704780B485B000AF7860A2
:102A0C000023FB737B6893F82130DBB2022B08D0D8
:102A1C007B6804229A637B68002283F820200123C0
:102A2C0020E07B681B681A687B681B6822F00E022A
:102A3C001A607B681B681A687B681B6822F00102AD
:102A4C001A607B681A6C7B68DB6B012101FA02F25D
:102A5C005A607B68012283F821207B68002283F86E
:102A6C002020FB7B18461437BD4680BC7047000005
:102A7C0080B584B000AF78600023FB737B6893F85B
:102A8C002130DBB2022B05D07B6804229A63012330
:102A9C00FB7351E07B681B681A687B681B6822F02B
:102AAC000E021A607B681B681A687B681B6822F030
:102ABC0001021A607B681B68224A934229D07B680A
:102ACC001B68214A934222D07B681B681F4A9342A1
:102ADC001AD07B681B681E4A934212D07B681B6815
:102AEC001C4A93420AD07B681B681B4A934202D152
:102AFC004FF480130EE04FF080730BE04FF48033F3
:102B0C0008E04FF4805305E04FF4807302E010238B
:102B1C0000E00123114A53607B68012283F82120D5
:102B2C007B68002283F820207B685B6B002B03D032
:102B3C007B685B6B78689847FB7B18461037BD4603
:102B4C0080BD00BF080002401C0002403000024063
:102B5C0044000240580002406C0002400000024059
:102B6C0080B485B000AF78607B6803F00703FB602E
:102B7C000C4BDB68BB60BA684FF6FF031340BB60BD
:102B8C00FB681A02BB68134343F0BF6343F4003382
:102B9C00BB60044ABB68D36000BF1437BD4680BC21
:102BAC00704700BF00ED00E080B400AF044BDB6861
:102BBC001B0A03F007031846BD4680BC704700BFD4
:102BCC0000ED00E080B483B000AF0346FB7197F9D1
:102BDC000730002B0BDBFB7903F01F02064997F93A
:102BEC0007305B09012000FA02F241F8232000BFF4
:102BFC000C37BD4680BC704700E100E080B483B068
:102C0C0000AF03463960FB7197F90730002B0ADBE4
:102C1C003B68DAB20C4997F907301201D2B20B4477
:102C2C0083F800230AE03B68DAB20849FB7903F029
:102C3C000F03043B1201D2B20B441A7600BF0C37BF
:102C4C00BD4680BC704700BF00E100E000ED00E035
:102C5C0080B489B000AFF860B9607A60FB6803F0AB
:102C6C000703FB61FB69C3F10703042B28BF042393
:102C7C00BB61FB690433062B02D9FB69033B00E003
:102C8C0000237B614FF0FF32BB6902FA03F3DA4396
:102C9C00BB681A407B699A404FF0FF317B6901FA9F
:102CAC0003F3D9437B680B40134318462437BD46C6
:102CBC0080BC704780B582B000AF78607B68013B08
:102CCC00B3F1807F01D301230FE00A4A7B68013BFB
:102CDC0053600F214FF0FF30FFF790FF054B0022A0
:102CEC009A60044B07221A60002318460837BD4629
:102CFC0080BD00BF10E000E080B582B000AF78600E
:102D0C007868FFF72DFF00BF0837BD4680BD80B542
:102D1C0086B000AF0346B9607A60FB7300237B6119
:102D2C00FFF742FF78617A68B9687869FFF790FF1E
:102D3C00024697F90F3011461846FFF75FFF00BFA8
:102D4C001837BD4680BD80B582B000AF0346FB711D
:102D5C0097F907301846FFF735FF00BF0837BD4617
:102D6C0080BD80B582B000AF78607868FFF7A2FFB5
:102D7C00034618460837BD4680BD80B582B000AF0B
:102D8C0078607B68002B01D1012341E07B6893F8CC
:102D9C003D30DBB2002B06D17B68002283F83C204F
:102DAC007868FEF7CFFC7B68022283F83D207B68B5
:102DBC001A687B6804331946104600F05BFA7B688E
:102DCC00012283F846207B68012283F83E207B6831
:102DDC00012283F83F207B68012283F840207B6826
:102DEC00012283F841207B68012283F842207B6812
:102DFC00012283F843207B68012283F844207B68FE
:102E0C00012283F845207B68012283F83D200023B2
:102E1C0018460837BD4680BD80B485B000AF7860D9
:102E2C007B6893F83D30DBB2012B01D001233AE0F3
:102E3C007B68022283F83D207B681B68DA687B681C
:102E4C001B6842F00102DA607B681B68184A9342E7
:102E5C000ED07B681B68B3F1804F09D07B681B6870
:102E6C00144A934204D07B681B68134A934211D1D5
:102E7C007B681B689B6803F00703FB60FB68062BF1
:102E8C0010D07B681B681A687B681B6842F00102D3
:102E9C001A6007E07B681B681A687B681B6842F045
:102EAC0001021A60002318461437BD4680BC7047D7
:102EBC00002C0140000400400008004080B584B0A4
:102ECC0000AF78607B681B68DB68FB607B681B6805
:102EDC001B69BB60BB6803F00203002B20D0FB68AE
:102EEC0003F00203002B1BD07B681B686FF00202FF
:102EFC001A617B6801221A777B681B689B6903F057
:102F0C000303002B03D0786800F098F905E078688B
:102F1C0000F08BF9786800F09AF97B6800221A7738
:102F2C00BB6803F00403002B20D0FB6803F0040300
:102F3C00002B1BD07B681B686FF004021A617B6846
:102F4C0002221A777B681B689B6903F44073002B81
:102F5C0003D0786800F072F905E0786800F065F944
:102F6C00786800F074F97B6800221A77BB6803F06C
:102F7C000803002B20D0FB6803F00803002B1BD0A8
:102F8C007B681B686FF008021A617B6804221A7751
:102F9C007B681B68DB6903F00303002B03D07868A4
:102FAC0000F04CF905E0786800F03FF9786800F023
:102FBC004EF97B6800221A77BB6803F01003002BD4
:102FCC0020D0FB6803F01003002B1BD07B681B6820
:102FDC006FF010021A617B6808221A777B681B68F5
:102FEC00DB6903F44073002B03D0786800F026F9FA
:102FFC0005E0786800F019F9786800F028F97B682A
:10300C0000221A77BB6803F00103002B0CD0FB687D
:10301C0003F00103002B07D07B681B686FF00102E3
:10302C001A617868FEF72EF8BB6803F08003002B5A
:10303C000CD0FB6803F08003002B07D07B681B6867
:10304C006FF080021A61786800F07FFABB6803F0B9
:10305C004003002B0CD0FB6803F04003002B07D07F
:10306C007B681B686FF040021A61786800F0F8F812
:10307C00BB6803F02003002B0CD0FB6803F020038B
:10308C00002B07D07B681B686FF020021A617868F0
:10309C0000F052FA00BF1037BD4680BD80B584B039
:1030AC0000AF786039600023FB737B6893F83C3089
:1030BC00012B01D10223B4E07B68012283F83C2070
:1030CC007B68022283F83D207B681B689B68BB6091
:1030DC00BB6823F07703BB60BB6823F47F43BB6002
:1030EC007B681B68BA689A603B681B68B3F5005F25
:1030FC003ED0B3F5005F00F28780B3F5805F00F03F
:10310C008680B3F5805F7FD8702B1AD0702B7BD85C
:10311C00602B50D0602B77D8502B3CD0502B73D8D1
:10312C00402B58D0402B6FD8302B64D0302B6BD821
:10313C00202B60D0202B67D8002B5CD0102B5AD0C2
:10314C0062E07B6818683B6899683B685A683B6822
:10315C00DB6800F074F97B681B689B68BB60BB681C
:10316C0043F07703BB607B681B68BA689A604FE0DA
:10317C007B6818683B6899683B685A683B68DB68F1
:10318C0000F05DF97B681B689A687B681B6842F4E9
:10319C0080429A603CE07B6818683B6859683B68E1
:1031AC00DB681A4600F0D4F87B681B68502118467F
:1031BC0000F02BF92CE07B6818683B6859683B6879
:1031CC00DB681A4600F0F2F87B681B686021184631
:1031DC0000F01BF91CE07B6818683B6859683B6879
:1031EC00DB681A4600F0B4F87B681B68402118466F
:1031FC0000F00BF90CE07B681A683B681B681946F9
:10320C00104600F002F903E00123FB7300E000BF5D
:10321C007B68012283F83D207B68002283F83C20E8
:10322C00FB7B18461037BD4680BD80B483B000AF21
:10323C00786000BF0C37BD4680BC704780B483B04B
:10324C0000AF786000BF0C37BD4680BC704780B4BF
:10325C0083B000AF786000BF0C37BD4680BC7047B0
:10326C0080B483B000AF786000BF0C37BD4680BC23
:10327C007047000080B485B000AF786039607B681F
:10328C001B68FB607B682F4A93420BD07B68B3F1C1
:10329C00804F07D07B682C4A934203D07B682B4A23
:1032AC00934208D1FB6823F07003FB603B685B68BA
:1032BC00FA681343FB607B68224A93420BD07B680D
:1032CC00B3F1804F07D07B681F4A934203D07B68D1
:1032DC001E4A934208D1FB6823F44073FB603B68A1
:1032EC00DB68FA681343FB60FB6823F080023B68E1
:1032FC005B691343FB607B68FA681A603B689A68E9
:10330C007B68DA623B681A687B689A627B680D4A54
:10331C00934203D13B681A697B681A637B6801226C
:10332C005A617B681B6903F00103002B05D07B6895
:10333C001B6923F001027B681A6100BF1437BD467C
:10334C0080BC7047002C0140000400400008004085
:10335C0080B487B000AFF860B9607A60FB681B6A14
:10336C007B61FB681B6A23F00102FB681A62FB6835
:10337C009B693B613B6923F0F0033B617B681B015C
:10338C003A6913433B617B6923F00A037B617A69D9
:10339C00BB6813437B61FB683A699A61FB687A6985
:1033AC001A6200BF1C37BD4680BC704780B487B022
:1033BC0000AFF860B9607A60FB681B6A7B61FB68E0
:1033CC001B6A23F01002FB681A62FB689B693B6165
:1033DC003B6923F470433B617B681B033A691343DD
:1033EC003B617B6923F0A0037B61BB681B017A699D
:1033FC0013437B61FB683A699A61FB687A691A62CC
:10340C0000BF1C37BD4680BC704780B485B000AF90
:10341C00786039607B689B68FB60FB6823F0700305
:10342C00FB603A68FB68134343F00703FB607B685F
:10343C00FA689A6000BF1437BD4680BC704780B4F0
:10344C0087B000AFF860B9607A603B60FB689B683E
:10345C007B617B6923F47F437B613B681A027B6849
:10346C001A43BB6813437A6913437B61FB687A691F
:10347C009A6000BF1C37BD4680BC704780B485B0D5
:10348C0000AF786039607B6893F83C30012B01D138
:10349C00022346E07B68012283F83C207B680222F1
:1034AC0083F83D207B681B685B68FB607B681B684E
:1034BC009B68BB60FB6823F07003FB603B681B6878
:1034CC00FA681343FB607B681B68FA685A607B6878
:1034DC001B68164A93420ED07B681B68B3F1804F71
:1034EC0009D07B681B68124A934204D07B681B6826
:1034FC00104A93420CD1BB6823F08003BB603B683D
:10350C005B68BA681343BB607B681B68BA689A60D7
:10351C007B68012283F83D207B68002283F83C20E5
:10352C00002318461437BD4680BC7047002C014060
:10353C00000400400008004080B483B000AF786005
:10354C0000BF0C37BD4680BC704780B483B000AF61
:10355C00786000BF0C37BD4680BC704780B582B028
:10356C0000AF78607B68002B01D1012342E07B68BF
:10357C0093F84130DBB2002B06D17B68002283F834
:10358C0040207868FEF7D4F97B68242283F8412028
:10359C007B681B68DA687B681B6822F40052DA606F
:1035AC00786800F0B7FD7B681B681A697B681B683C
:1035BC0022F490421A617B681B685A697B681B680D
:1035CC0022F02A025A617B681B68DA687B681B68E8
:1035DC0042F40052DA607B6800225A647B68202235
:1035EC0083F841207B68202283F842207B680022EC
:1035FC005A63002318460837BD4680BD80B58AB093
:10360C0002AFF860B9603B601346FB8000237B611E
:10361C00FB6893F84130DBB2202B75D1BB68002BD3
:10362C0002D0FB88002B01D101236EE0FB68002245
:10363C005A64FB68212283F84120FEF74DFB786128
:10364C00FB68FA889A84FB68FA88DA84FB689B68C2
:10365C00B3F5805F08D1FB681B69002B04D10023F4
:10366C00FB61BB68BB6103E0BB68FB610023BB6112
:10367C002EE03B6800937B6900228021F86800F003
:10368C001CFB0346002B05D0FB68202283F841204D
:10369C0003233AE0FB69002B0BD1BB691B881A464C
:1036AC00FB681B68C2F308025A60BB690233BB613A
:1036BC0007E0FB691A78FB681B685A60FB690133E9
:1036CC00FB61FB68DB8C9BB2013B9AB2FB68DA8432
:1036DC00FB68DB8C9BB2002BCBD13B6800937B69E6
:1036EC0000224021F86800F0E8FA0346002B05D0D0
:1036FC00FB68202283F84120032306E0FB6820228C
:10370C0083F84120002300E0022318462037BD46F1
:10371C0080BD80B584B000AFF860B9601346FB8003
:10372C00FB6893F84230DBB2202B12D1BB68002B24
:10373C0002D0FB88002B01D101230BE0FB68002297
:10374C001A63FB881A46B968F86800F00FFB034649
:10375C0000E0022318461037BD4680BD80B5BAB0D4
:10376C0000AF78607B681B681B68C7F8E4307B6827
:10377C001B68DB68C7F8E0307B681B685B69C7F8BF
:10378C00DC300023C7F8D8300023C7F8D430D7F882
:10379C00E43003F00F03C7F8D830D7F8D830002B3B
:1037AC000FD1D7F8E43003F02003002B09D0D7F861
:1037BC00E03003F02003002B03D0786800F0ECFB22
:1037CC005BE2D7F8D830002B00F0DE80D7F8DC3085
:1037DC0003F00103002B06D1D7F8E03003F490730B
:1037EC00002B00F0D180D7F8E43003F00103002B5C
:1037FC000BD0D7F8E03003F48073002B05D07B6836
:10380C005B6C43F001027B685A64D7F8E43003F038
:10381C000403002B0BD0D7F8DC3003F00103002B92
:10382C0005D07B685B6C43F002027B685A64D7F866
:10383C00E43003F00203002B0BD0D7F8DC3003F09C
:10384C000103002B05D07B685B6C43F004027B68A2
:10385C005A64D7F8E43003F00803002B11D0D7F8E2
:10386C00E03003F02003002B05D1D7F8DC3003F057
:10387C000103002B05D07B685B6C43F008027B686E
:10388C005A647B685B6C002B00F0F281D7F8E43053
:10389C0003F02003002B08D0D7F8E03003F020030E
:1038AC00002B02D0786800F077FB7B681B685B69A3
:1038BC0003F04003002B14BF01230023DBB2C7F835
:1038CC00D4307B685B6C03F00803002B03D1D7F872
:1038DC00D430002B4FD0786800F081FA7B681B68DD
:1038EC005B6903F04003002B41D07B681B681433E9
:1038FC00C7F89C30D7F89C3053E8003FC7F8983095
:10390C00D7F8983023F04003C7F8D0307B681B6899
:10391C001433D7F8D020C7F8A820C7F8A430D7F8AC
:10392C00A410D7F8A82041E80023C7F8A030D7F896
:10393C00A030002BD9D17B68DB6B002B13D07B68BC
:10394C00DB6B7E4A5A637B68DB6B1846FFF790F89B
:10395C000346002B16D07B68DB6B5B6B7A68D26BF3
:10396C00104698470EE0786800F093F90AE0786802
:10397C0000F08FF906E0786800F08BF97B68002284
:10398C005A6475E100BF73E17B681B6B012B40F03F
:10399C004F81D7F8E43003F01003002B00F048817E
:1039AC00D7F8E03003F01003002B00F04181002326
:1039BC00BB607B681B681B68BB607B681B685B68B3
:1039CC00BB60BB687B681B685B6903F04003002B22
:1039DC0000F0B6807B68DB6B1B685B68A7F8BE30B9
:1039EC00B7F8BE30002B00F045817B689B8DB7F893
:1039FC00BE209A4280F03E817B68B7F8BE20DA8503
:103A0C007B68DB6B9B69202B00F088807B681B68D4
:103A1C000C33C7F88830D7F8883053E8003FC7F824
:103A2C008430D7F8843023F48073C7F8B8307B68BF
:103A3C001B680C33D7F8B820C7F89420C7F890301F
:103A4C00D7F89010D7F8942041E80023C7F88C30B1
:103A5C00D7F88C30002BD9D17B681B6814337B676B
:103A6C007B6F53E8003F3B673B6F23F00103C7F8C4
:103A7C00B4307B681B681433D7F8B420C7F88020A7
:103A8C00FB67F96FD7F8802041E80023BB67BB6F59
:103A9C00002BE1D17B681B6814333B663B6E53E80B
:103AAC00003FFB65FB6D23F04003C7F8B0307B682B
:103ABC001B681433D7F8B020FA66BB66B96EFA6E81
:103ACC0041E800237B667B6E002BE3D17B682022D0
:103ADC0083F842207B6800221A637B681B680C33D6
:103AEC00FB64FB6C53E8003FBB64BB6C23F010031E
:103AFC00C7F8AC307B681B680C33D7F8AC20BA65C0
:103B0C007B65796DBA6D41E800233B653B6D002BFD
:103B1C00E3D17B68DB6B1846FEF76EFF7B680222F5
:103B2C005A637B689A8D7B68DB8D9BB2D31A9BB2F0
:103B3C001946786800F0B6F89CE000BFAF3E00086C
:103B4C007B689A8D7B68DB8D9BB2D31AA7F8CE303D
:103B5C007B68DB8D9BB2002B00F08E80B7F8CE30EB
:103B6C00002B00F089807B681B680C33BB63BB6B3C
:103B7C0053E8003F7B637B6B23F49073C7F8C8302A
:103B8C007B681B680C33D7F8C8207A643B64396CAB
:103B9C007A6C41E80023FB63FB6B002BE3D17B6861
:103BAC001B6814337B627B6A53E8003F3B623B6AC1
:103BBC0023F00103C7F8C4307B681B681433D7F8B3
:103BCC00C4203A63FB62F96A3A6B41E80023BB629A
:103BDC00BB6A002BE3D17B68202283F842207B68F0
:103BEC0000221A637B681B680C333B613B6953E80A
:103BFC00003FFB60FB6823F01003C7F8C0307B6804
:103C0C001B680C33D7F8C020FA61BB61B969FA693B
:103C1C0041E800237B617B69002BE3D17B680222A6
:103C2C005A63B7F8CE301946786800F03BF823E0B9
:103C3C00D7F8E43003F08003002B09D0D7F8E0303C
:103C4C0003F08003002B03D0786800F03EF914E0F9
:103C5C00D7F8E43003F04003002B0ED0D7F8E03057
:103C6C0003F04003002B08D0786800F07DF904E0E5
:103C7C0000BF02E000BF00E000BFE837BD4680BDDA
:103C8C0080B483B000AF786000BF0C37BD4680BCF9
:103C9C00704780B483B000AF786000BF0C37BD466E
:103CAC0080BC704780B483B000AF78600B467B80DB
:103CBC0000BF0C37BD4680BC704780B586B000AFE6
:103CCC00F860B9603B601346FB713BE03B6AB3F1B3
:103CDC00FF3F37D0FEF700F802463B68D31A3A6A2A
:103CEC009A4202D33B6A002B01D103233AE0FB68D2
:103CFC001B68DB6803F00403002B23D0BB68802B0C
:103D0C0020D0BB68402B1DD0FB681B681B6803F0E0
:103D1C000803082B16D100237B61FB681B681B680A
:103D2C007B61FB681B685B687B617B69F86800F0F2
:103D3C0056F8FB6808225A64FB68002283F840207E
:103D4C0001230FE0FB681B681A68BB681340BA6854
:103D5C009A420CBF01230023DBB21A46FB799A422C
:103D6C00B4D0002318461837BD4680BD80B485B04A
:103D7C0000AFF860B9601346FB80FB68BA689A62C2
:103D8C00FB68FA889A85FB68FA88DA85FB6800225A
:103D9C005A64FB68222283F84220FB681B69002BC3
:103DAC0007D0FB681B68DA68FB681B6842F48072FA
:103DBC00DA60FB681B685A69FB681B6842F00102F9
:103DCC005A61FB681B68DA68FB681B6842F02002CA
:103DDC00DA60002318461437BD4680BC704780B4A7
:103DEC0095B000AF78607B681B680C337B637B6B92
:103DFC0053E8003F3B633B6B23F49073FB647B689D
:103E0C001B680C33FA6C3A64FB63F96B3A6C41E84F
:103E1C000023BB63BB6B002BE5D17B681B681433A1
:103E2C003B623B6A53E8003FFB61FB6923F00103F3
:103E3C00BB647B681B681433BA6CFA62BB62B96AE8
:103E4C00FA6A41E800237B627B6A002BE5D17B6830
:103E5C001B6B012B19D17B681B680C33FB60FB6857
:103E6C0053E8003FBB60BB6823F010037B647B68A6
:103E7C001B680C337A6CBA617B617969BA6941E869
:103E8C0000233B613B69002BE5D17B68202283F842
:103E9C0042207B6800221A6300BF5437BD4680BCA9
:103EAC00704780B584B000AF78607B685B6AFB605C
:103EBC00FB680022DA85FB680022DA84F868FFF7D9
:103ECC00E8FE00BF1037BD4680BD80B485B000AFA2
:103EDC0078607B6893F84130DBB2212B3ED17B6854
:103EEC009B68B3F5805F14D17B681B69002B10D1E4
:103EFC007B681B6AFB60FB681B881A467B681B6827
:103F0C00C2F308025A607B681B6A9A1C7B681A62AF
:103F1C0008E07B681B6A591C7A6811621A787B6806
:103F2C001B685A607B68DB8C9BB2013B9BB27A6846
:103F3C001946D184002B0FD17B681B68DA687B682B
:103F4C001B6822F08002DA607B681B68DA687B6889
:103F5C001B6842F04002DA60002300E0022318469E
:103F6C001437BD4680BC704780B582B000AF786016
:103F7C007B681B68DA687B681B6822F04002DA6099
:103F8C007B68202283F841207868FFF779FE0023B4
:103F9C0018460837BD4680BD80B58CB000AF786040
:103FAC007B6893F84230DBB2222B40F0AE807B680A
:103FBC009B68B3F5805F17D17B681B69002B13D10D
:103FCC000023FB627B689B6ABB627B681B685B6837
:103FDC009BB2C3F308039AB2BB6A1A807B689B6AD4
:103FEC009A1C7B689A6226E07B689B6AFB620023C2
:103FFC00BB627B689B68B3F5805F07D07B689B686E
:10400C00002B0AD17B681B69002B06D17B681B68CF
:10401C005B68DAB2FB6A1A7008E07B681B685B6845
:10402C00DBB203F07F03DAB2FB6A1A707B689B6A1F
:10403C005A1C7B689A627B68DB8D9BB2013B9BB2FE
:10404C007A681946D185002B5DD17B681B68DA68CC
:10405C007B681B6822F02002DA607B681B68DA68D8
:10406C007B681B6822F48072DA607B681B685A6973
:10407C007B681B6822F001025A617B68202283F85E
:10408C0042207B6800225A637B681B6B012B35D165
:10409C007B6800221A637B681B680C337B617B692D
:1040AC0053E8003F3B613B6923F010037B627B6864
:1040BC001B680C337A6A3A62FB61F9693A6A41E827
:1040CC000023BB61BB69002BE5D17B681B681B68B7
:1040DC0003F01003102B0AD10023FB607B681B68D4
:1040EC001B68FB607B681B685B68FB60FB687B681C
:1040FC009B8D19467868FFF7D5FD02E07868FDF7CF
:10410C0051F8002302E0002300E002231846303768
:10411C00BD4680BD80B584B000AF78607B681B68FD
:10412C001B6923F440517B68DA687B681B680A437F
:10413C001A617B689A687B681B691A437B685B69A8
:10414C001343BB607B681B68DB6823F4B05323F01C
:10415C000C037A681268B9680B43D3607B681B68E0
:10416C005B6923F440717B689A697B681B680A431E
:10417C005A617B681B682C4A934203D1FEF7B8F94D
:10418C00F86002E0FEF7A0F9F860FA6813469B00AD
:10419C0013449A001A447B685B689B00B2FBF3F3F0
:1041AC00224AA2FB03235B091901FA6813469B0000
:1041BC0013449A001A447B685B689B00B2FBF3F2D1
:1041CC001A4BA3FB02035B09642000FB03F3D31A15
:1041DC001B013233154AA2FB03235B0903F0F003E6
:1041EC001944FA6813469B0013449A001A447B68DE
:1041FC005B689B00B2FBF3F20C4BA3FB02035B0965
:10420C00642000FB03F3D31A1B013233074AA2FBD1
:10421C0003235B0903F00F027B681B680A449A6056
:10422C0000BF1037BD4680BD003801401F85EB51E3
:10423C0080B400AF00BFBD4680BC704780B586B06F
:10424C0000AF7860144A154BD31A7B617B693B61D4
:10425C00134B1B68002B02D1114B124A1A60104BE6
:10426C001A687B6813443A699A4207D200F05CF9E9
:10427C0003460C221A604FF0FF3309E0084B1B6811
:10428C00FB60074B1A687B681344054A1360FB6894
:10429C0018461837BD4680BD00500020000C0000A9
:1042AC00940600209806002080B400AF0123184625
:1042BC00BD4680BC704780B582B000AF7860396075
:1042CC0000F032F9034616221A604FF0FF331846FD
:1042DC000837BD4680BD80B582B000AF78604FF026
:1042EC00FF317868FFF7E7FF00BFFDE780B586B0C8
:1042FC0000AFF860B9607A6000237B610AE0AFF32D
:10430C0000800146BB685A1CBA60CAB21A707B693D
:10431C0001337B617A697B689A42F0DB7B681846D3
:10432C001837BD4680BD80B586B000AFF860B96067
:10433C007A6000237B6109E0BB685A1CBA601B7869
:10434C001846AFF300807B6901337B617A697B6827
:10435C009A42F1DB7B6818461837BD4680BD80B4A5
:10436C0083B000AF78604FF0FF3318460C37BD4672
:10437C0080BC704780B483B000AF786039603B6814
:10438C004FF400525A60002318460C37BD4680BCCF
:10439C00704780B483B000AF7860012318460C37A7
:1043AC00BD4680BC704780B485B000AFF860B96082
:1043BC007A60002318461437BD4680BC7047000055
:1043CC00FFF736FF0B480C490C4A002302E0D45887
:1043DC00C4500433C4188C42F9D3094A094C002345
:1043EC0001E013600432A242FBD3FCF707F8FCF7A0
:1043FC0097FF7047000000206C00002070530008ED
:10440C006C00002098060020FEE7000038B5104B29
:10441C0004461D682A6BB2B9182000F0A9F80246B0
:10442C00286320B946210B4B0B4800F083F80B494D
:10443C000B4BC0E900130B4B002183600B238381D2
:10444C000120C2E9040100231461536138BD00BF8F
:10445C000C00002080520008975200080E33CDABA0
:10446C0034126DE6ECDE0500164B10B51C68226BA1
:10447C00B2B9182000F07CF80246206320B9522112
:10448C00114B124800F056F81149124BC0E90013B9
:10449C00114B002183600B2383810120C2E90401AD
:1044AC0013690E48546958430D4901FB0400A3FBE2
:1044BC000131013340EB0100C2E9043020F000402F
:1044CC0010BD00BF0C00002080520008975200085D
:1044DC000E33CDAB34126DE6ECDE05002DF45158E5
:1044EC002D7F954C0EB46FF0004110B500249DB09B
:1044FC001FAB02900690079104910948094953F8A3
:10450C00042B0591006802A901931B9400F098F804
:10451C00029B1C701DB0BDE8104003B0704700BF7B
:10452C000C0000200802FFFF014B1868704700BF09
:10453C000C0000201FB514461A46094B05461B6893
:10454C00D8684CB1074BCDE9013400912B46064994
:10455C0000F006FB00F04BFB044B1C46F3E700BFDE
:10456C000C000020EF520008FC5200082A530008EF
:10457C00024B01461868FBF7D3BF00BF0C000020AC
:10458C002DE9F0471F468E688246BE420C46904687
:10459C00334653D8B1F90C0010F4906F2BD06569E9
:1045AC002368096905EB4505A3EB010905EBD575F6
:1045BC007B1C6D104B44AB422A4684BF1D462A46D9
:1045CC00430527D511465046FBF7AAFF064658B3BC
:1045DC004A46216900F0FDFAA38923F4906343F065
:1045EC008003A38126614E4426603B463E466561AE
:1045FC00A5EB0905A5601F463A464146206800F028
:10460C00C1FA0020A3689B1BA36023683B44236072
:10461C00BDE8F087504600F0F1FA06460028E1D1DB
:10462C0050462169FBF712FF0C23CAF80030A3890E
:10463C004FF0FF3043F04003A381E9E73E46DBE750
:10464C002DE9F0471F468B8906461B060D4614467E
:10465C009CB010D50B6973B94021FBF761FF286042
:10466C00286130B90C2333604FF0FF301CB0BDE82B
:10467C00F08740236B610023099320238DF82930A8
:10468C0030234FF001080397644F8DF82A302346EE
:10469C00994613F8012B0AB1252AF9D1B9EB040A72
:1046AC000BD05346224629463046FFF769FF0130AE
:1046BC0000F0A480099A5244099299F80030002B1A
:1046CC0000F09C8000234FF0FF32CDE9052309F167
:1046DC000109049307938DF853301A934C46052225
:1046EC0014F8011B4D4800F066FA049BD0B9D806AB
:1046FC0044BF20228DF85320190744BF2B228DF87C
:10470C00532099F800202A2A13D04C4600204FF051
:10471C000A0C079A214611F8013B303B092B49D969
:10472C0068B913E0C01B08FA00F01843A1460490C6
:10473C00D4E7039A111D12680391002A01DB07923A
:10474C0004E0524243F002030792049323782E2B89
:10475C000AD163782A2B32D1039B02341A1D1B68B1
:10476C00039243EAE3730593DFF8B49003224846BF
:10477C00217800F020FA38B14022049BA0EB09000C
:10478C00824013430134049314F8011B062225487C
:10479C008DF8281000F00FFA002835D0224818BBED
:1047AC00039B073323F0070308330393099B03444C
:1047BC0009936CE70C4601200CFB0232AAE700239C
:1047CC004FF00A0C194601340593204610F8012BC2
:1047DC00303A092A03D9002BC6D00591C4E7044608
:1047EC0001230CFB0121F0E703AB00932A46304672
:1047FC000E4B04A9AFF30080421CD7D1AB895B06EA
:10480C003FF532AF099831E703AB00932A463046A7
:10481C00064B04A900F07EF8EEE700BF2B5300080E
:10482C003153000835530008000000008D45000886
:10483C002DE9F047164698468A680B69074693425D
:10484C00B8BF1346336091F843200C46DDF8209036
:10485C000AB1013333602368990642BF33680233CF
:10486C003360256815F0060506D104F1190AE368D2
:10487C0032689B1AAB422BDC94F843302268003B25
:10488C0018BF0123920630D44146384604F1430246
:10489C00C847013023D02368226903F00603042B98
:1048AC0014BF002533684FF0000608BFE56804F11B
:1048BC001A0408BFED1A54F8123C08BF25EAE57536
:1048CC009342C4BF9B1AED18B5421AD1002008E0E0
:1048DC000123524641463846C847013003D14FF0B8
:1048EC00FF30BDE8F0870135C1E73020E11881F8D1
:1048FC0043005A1C94F845102244023382F84310AA
:10490C00C2E70123224641463846C8470130E6D06B
:10491C000136D9E72DE9F0430D7E85B0782D904610
:10492C0007460C4699460C9E01F1430207D8622DAE
:10493C000AD8002D00F0D780582D00F0BC8004F16F
:10494C00420684F842503BE0A5F16303152BF6D8E0
:10495C0001A151F823F000BFBD490008D14900085E
:10496C004B4900084B4900084B4900084B490008CB
:10497C00D14900084B4900084B4900084B49000835
:10498C004B490008D94A0008FB4900088B4A00082B
:10499C004B4900084B490008FB4A00084B490008EA
:1049AC00FB4900084B4900084B490008934A000892
:1049BC0033681A1D1B68326004F1420684F84230D9
:1049CC000123A1E033682068191D3160060601D56A
:1049DC001D6803E04506FBD5B3F90050002D03DA42
:1049EC002D236D4284F843300A235B4811E0216883
:1049FC003368080653F8045B02D4490648BFADB2CD
:104A0C003360237E54486F2B5CD10823002184F83B
:104A1C0043106668002EA66005DB21682E4321F04A
:104A2C000401216050D01646B5FBF3F103FB115C79
:104A3C0010F80CC006F801CDAC4663450D46F3D911
:104A4C00082B0BD12368DB0708D5236961689942D1
:104A5C00DEBF302306F8013C06F1FF36921B2261C3
:104A6C00434621463846CDF8009003AAFFF7E0FEF6
:104A7C0001304ED14FF0FF3005B0BDE8F083236814
:104A8C0043F0200323607825344884F8455023688C
:104A9C00316813F0800F51F8045B03D113F0400F11
:104AAC0018BFADB23160D90744BF43F02003236077
:104ABC001DB11023AAE72848E7E7236823F0200359
:104ACC002360F6E70A23A1E71646B9E733682568A1
:104ADC00181D616930602E061B6801D5196002E053
:104AEC006806FBD51980002316462361B8E73368A6
:104AFC0000211A1D32601E686268304600F05BF8B7
:104B0C0008B1801B606063682361002384F8433024
:104B1C00A6E73246414638462369C8470130A9D03A
:104B2C0023689B0713D4E068039B9842B8BF1846D0
:104B3C00A2E70123324641463846C847013099D096
:104B4C000135E36803995B1AAB42F2DCEBE7002515
:104B5C0004F11906F5E700BF3C5300084D5300085B
:104B6C000EB403B5014603AB054853F8042B00689B
:104B7C00019300F099F802B05DF804EB03B07047B4
:104B8C000C000020884210B501EB020402D98442CB
:104B9C00234607D8431EA14207D011F8012B03F876
:104BAC00012FF8E70244824200D110BD13F8011D19
:104BBC0002F8011DF7E7034610B5C9B2024493424F
:104BCC00184601D1002003E0047801338C42F6D161
:104BDC0010BD0A44914200F1FF3300D1704710B56B
:104BEC0011F8014B914203F8014FF9D110BD062089
:104BFC0008B500F027FA0120FFF76DFB2DE9F04115
:104C0C00074614460D4621B91146BDE8F041FBF7A5
:104C1C0087BC2AB9FBF71AFC25462846BDE8F0816B
:104C2C0000F02CFA8442064602D8B4EB500FF4D8AC
:104C3C0021463846FBF774FC804608B94546ECE73C
:104C4C00B4422246294628BF3246FFF7C2FF294606
:104C5C003846FBF7FBFBF1E7936810B4013B002BE4
:104C6C00936007DA9469A34201DB0A2902D110BCD4
:104C7C0000F02EB91368581C10601970084610BC4F
:104C8C007047F8B506460F461446D518AC4201D10C
:104C9C00002007E03A46304614F8011BFFF7DCFF12
:104CAC00431CF3D1F8BD00002DE9F0470D46144626
:104CBC001F4606469CB018B1036A0BB9FBF7D6FA2F
:104CCC006B6ED90705D4AB899A0502D4A86DFBF796
:104CDC00BAFBAB891B0701D52B699BB9294630461A
:104CEC0000F034F970B16B6EDC0704D54FF0FF3077
:104CFC001CB0BDE8F087AB899805F7D4A86DFBF71D
:104D0C00A3FBF3E70023099320238DF829303023EC
:104D1C004FF001080397694F8DF82A3023469946C6
:104D2C0013F8012B0AB1252AF9D1B9EB040A0BD0DF
:104D3C005346224629463046FFF7A3FF013000F0C8
:104D4C00A480099A5244099299F80030002B00F083
:104D5C009C8000234FF0FF32CDE9052309F10109B6
:104D6C00049307938DF853301A934C46052214F88C
:104D7C00011B5248FFF71FFF049BD0B9D90644BF53
:104D8C0020228DF853201A0744BF2B228DF8532074
:104D9C0099F800202A2A13D04C4600204FF00A0C18
:104DAC00079A214611F8013B303B092B49D968B9C8
:104DBC0013E0C01B08FA00F01843A1460490D4E796
:104DCC00039A111D12680391002A01DB079204E07B
:104DDC00524243F002030792049323782E2B0AD1FC
:104DEC0063782A2B32D1039B02341A1D1B68039261
:104DFC0043EAE3730593DFF8C89003224846217811
:104E0C00FFF7D9FE38B14022049BA0EB0900824089
:104E1C0013430134049314F8011B062229488DF81E
:104E2C002810FFF7C8FE00283ED0274818BB039B6C
:104E3C00073323F0070308330393099B03440993B7
:104E4C006CE70C4601200CFB0232AAE700234FF062
:104E5C000A0C194601340593204610F8012B303A00
:104E6C00092A03D9002BC6D00591C4E704460123B7
:104E7C000CFB0121F0E703AB00932A463046134BA1
:104E8C0004A9AFF30080431CD7D16B6ED90705D4AE
:104E9C00AB899A0502D4A86DFBF7D6FAAB895B06F1
:104EAC003FF524AF099823E703AB00932A4630461D
:104EBC00064B04A9FFF72EFDE5E700BF2B530008B6
:104ECC003153000835530008000000008F4C0008D7
:104EDC00F8B50E461446054618B1036A0BB9FBF734
:104EEC00C5F9A369A360A3891A0701D5236943B93E
:104EFC002146284600F02AF818B14FF0FF37384603
:104F0C00F8BD23682269F6B2981A63693746834262
:104F1C0005DC21462846FBF70DFC0028EDD1A368E3
:104F2C00013BA36023685A1C22601E706269431CFB
:104F3C009A4204D0A389DB07E1D50A2EDFD12146A2
:104F4C002846FBF7F7FB0028D9D0D6E738B5284B15
:104F5C00054618680C4618B1036A0BB9FBF786F9BD
:104F6C00B4F90C301A0721D4D80607D409222A60C8
:104F7C0043F040034FF0FF30A38130E0590712D5C6
:104F8C00616B41B104F14403994202D02846FBF70E
:104F9C005DFA002363630022B4F90C30626022696D
:104FAC0023F02403226043F00803A38122693AB959
:104FBC009A0501D5180603D52146284600F08AF833
:104FCC00B4F90C3013F001020AD00022A26062691D
:104FDC005242A261226942B913F08000C8D138BD97
:104FEC00990758BF6269A260F4E70020F7E700BF99
:104FFC000C0000201F2938B505460C4604D9162391
:10500C0003604FF0FF3038BDC26B12B152F8213043
:10501C004BB9284600F030F8224601462846BDE838
:10502C00384000F017B8012B0AD0591C03D11623B5
:10503C0003600120E7E70021204642F8241098473E
:10504C000020E0E7024B01461868FFF7D3BF00BF12
:10505C000C00002038B50023064D044608461146C6
:10506C002B60FFF728F9431C02D12B6803B1236096
:10507C0038BD00BFC4010020FFF716B951F8043C3D
:10508C00181F002BBCBF0B58C018704770B50C46CE
:10509C00B1F90E10154600291E4696B00ADAA18900
:1050AC0011F0800113D14FF48062002031602A602E
:1050BC0016B070BD6A4600F047F80028EFDB019986
:1050CC0001F47041A1F5005359425941EBE700211D
:1050DC004022EAE78B8973B59E0705460C4607D537
:1050EC0004F14703236023610123636102B070BDA7
:1050FC0001AB6A46FFF7CAFF009E28463146FBF714
:10510C000FFAB4F90C3038B99A05EFD423F0030335
:10511C0043F00203A381E3E743F08003A381019BE7
:10512C00C4E904062060002BE0D02846B4F90E1028
:10513C0000F01CF80028D9D0A38923F0030343F016
:10514C000103A381D2E7000038B50023064D0446C5
:10515C00084611462B60FFF70DF9431C02D12B6852
:10516C0003B1236038BD00BFC401002038B5002353
:10517C00054D044608462B60FFF70BF9431C02D182
:10518C002B6803B1236038BDC4010020F8B500BF03
:10519C00F8BC08BC9E467047F8B500BFF8BC08BC0C
:0451AC009E46704764
:1051B0004F757470757443616C54696D650A0000B5
:1051C0004F75747075743D25642C207533325469A5
:1051D0006D654F6E3D25642C200000007533325400
:1051E000696D654379636C653D25640A00000000C4
:1051F00052533438355F4348315F50726F63657383
:10520000730A000052657475726E204348310A00BB
:1052100052533438355F4348335F50726F63657360
:10522000730A000052657475726E204348330A0099
:10523000535441525455500A000000005253343820
:10524000355F4348310A000052533438355F4348D4
:10525000330A000002030405060708090A0B0C0DB7
:105260000E0F1010010200000000000000000000FE
:1052700001020304060708090000000001020304FC
:105280005245454E54206D616C6C6F63207375639D
:10529000636565646564002F6275696C642F676E71
:1052A000752D746F6F6C732D666F722D73746D3303
:1052B000325F31342E332E72656C312E32303235FE
:1052C000313032372D303730302F7372632F6E65A7
:1052D000776C69622F6E65776C69622F6C696263A7
:1052E0002F7374646C69622F72616E642E63002C7C
:1052F0002066756E6374696F6E3A20006173736522
:105300007274696F6E2022257322206661696C6554
:10531000643A2066696C6520222573222C206C6912
:105320006E65202564257325730A00232D302B20FC
:1053300000686C4C00656667454647003031323383
:1053400034353637383941424344454600303132EE
:10535000333435363738396162636465660000007E
:08536000ECADFF7F010000002D
:045368003101000807
:04536C000D01000827
:105370000000000003000000880000201000002052
:105380000000000088000020F000002058010020EC
:10539000000000000000000000000000000000000D
:1053A00000000000000000000000000000000000FD
:1053B00000000000000000000000000000000000ED
:1053C00000000000000000000000000078563412C9
:0C53D000100000000100000000127A0034
:04000005080043CDDF
:00000001FF
