:0C0000000C9462000C94F6010C940000BB
:10000C000C9400000C9400000C9400000C94000064
:10001C000C9400000C9400000C9400000C94000054
:10002C000C9400000C9400000C9400000C94000044
:10003C000C9400000C9463010C9400000C94B90116
:10004C000C9400000C9400000C9400000C94000024
:10005C000C9400000C9400000C9400000C94000014
:10006C000C9400000C9400000C9400000C94F5010E
:10007C000C9400000C9400000C9400000C940000F4
:10008C001027E80364000A000100001000011000B2
:10009C00010078563412102701002D4E414E0049B4
:1000AC004E460000040000059E0002008F05A200D1
:1000BC000100AC05A4000000F894EE27ECBBF1E0C5
:1000CC00F5BFE5BFE0936C00F8E1F1BDE1BD8DE05B
:1000DC00A2E0BB27ED938A95E9F780E090E1A0E0E0
:1000EC00B1E0ED930197E9F7E0EBF0E085919591A4
:1000FC00009761F0A591B59105901590BF01F001A5
:10010C0005900D920197E1F7FB01F0CFEFEFEDBFFA
:10011C00E0E1EEBFC0E0D5E00C9494000E94F20048
:10012C000E9401010E9401017894E1E0E0939305A3
:10013C000E9401010E94A802E0919A05E13011F0A1
:10014C000C94AA000E945202F3CFFFCF8D9A8E9A84
:10015C00089595980895959A0895E0E0E0BFE1BF61
:10016C00E4E0E3BFE3E8E2BFE7B7E160E7BF08958F
:10017C00E1E0E9BF0895BF9AE2E0E0936A00E0E0B5
:10018C00EABFE1E0E9BFE8BFE0E0E7BFE0937D0054
:10019C00E2E0EBB9E8E9EAB9E6E0E0939500E0E0EB
:1001AC00E0939000E0E1E9B9E2E0E0939B00E8E93C
:1001BC00E0939A00E6E0E0939D00E0E0E093980085
:1001CC00E0E1E09399000895189A929A0895EEE16F
:1001DC00E1BDEEE0E1BD08950E94AC000E94C100BB
:1001EC000E9403010E94EA000E94B3000E94ED00ED
:1001FC000E94BE000895A8950895BB9ABA9AB99A20
:10020C00B89AC39AC29AC19AC09ABD9AC59A0895CF
:10021C001A930A93BD9AC598E2E8EFBDE8E1EEBDEA
:10022C00EB81FC816D817E81A0E4B2E48FE090E0F3
:10023C000E94BB036627772731978F0117BD06BD38
:10024C00EA81F0E00E948303DF01CB01F80166270D
:10025C0077270E948803DF01CB01E4E6F0E060E041
:10026C0070E00E94BB03FBBDEABD19810881279693
:10027C000895EEB5E260EEBD0895EEB5E87FEEBDF3
:10028C000895EFB5EF73EFBDEEB5E87FEEBDE0E09E
:10029C00EFBDEEBDE0937A00E0E0F0E0FDBDECBD1B
:1002AC00F7BDE6BDFBBDEABDF9BDE8BDE6B7EC6345
:1002BC00E6BFE7B7E37CE7BF08950E940F03E3E8CE
:1002CC00E2BF0E941D030E941602E0919305E130EB
:1002DC0011F00C948E01A8EAB5E00E942803E438D2
:1002EC00A3E0FA0710F40C947D010E94AF00A091DA
:1002FC00A805B091A905A83EE3E0BE0710F40C9444
:10030C008E010E94B100E0E0E093A805E093A905FE
:10031C00E091A505E13011F00C94B201A6EAB5E02C
:10032C000E942803E83CA0E0FA0710F00C94A90105
:10033C00E0918D05F0918E05E838A0E0FA0710F0F9
:10034C000C94A90109C0E0E00E942F0311F00C9459
:10035C00B201E0E0E09393050E94FC010E940602CA
:10036C000E943A0318950E940F031A930A9310E007
:10037C0000E01BB10CB1E1E00E942F0311F00C94D2
:10038C00CD01E12FEC7111F00C94CD0101C022C014
:10039C00ADE8B5E00E942803EB5FFA4F0083E091D3
:1003AC008D05F0918E05E738A0E0FA0710F40C9457
:1003BC00F001E5E0F5E0FA93EA93E0E0EA93E8E88F
:1003CC00F0E0FA93EA930E940103E0E0E0938D05DC
:1003DC00E0938E05099119910E943A03189518958E
:1003EC00EA93E1E0E0939305E9911895E091980583
:1003FC00E13011F00C940402C29801C0C29A089525
:10040C00E091A405E13011F00C940E02C59A07C0DE
:10041C00E091A405E03011F00C941502C5980895F4
:10042C00E0919905E13011F00C943E02ABE9B5E096
:10043C000E94F203EF5FFF4F6F4F7F4F0E94F70355
:10044C00319760407040A091A005B091A1058091BA
:10045C00A2059091A3050E94010410F40C943E0295
:10046C00E0E0E0939905E1E0E0939A050E944803EF
:10047C0008951A930A9300E010E0EA81F0E0FA93F1
:10048C00EA930E94E2020E94EA020E2F1127E02F4B
:10049C0019810881239608951A930E941D030E94C6
:1004AC005503E43110F00C9460020E9443010E9449
:1004BC0047010AC0E0910405E73410F40C9468027B
:1004CC0012E302C010910405E2E0E093A4050E943F
:1004DC0043010E9447010E946403E8EEF3E060E0F0
:1004EC0070E00E94FC031A930E940E010E946403A8
:1004FC000E943F010E941D030E945503E53010F03D
:10050C000C948B02E5E0E0930405E0910405F0E027
:10051C000E948303ABEDB3E080E090E00E9488037F
:10052C00E093A005F093A1056093A2057093A30539
:10053C000E944803E1E0E0939905E0E0E0939A051E
:10054C0019910895E0919305E13011F00C94E102BA
:10055C00E0E0E0939A05E0939905E093A405E0E1CF
:10056C00F7E2FA93EA930E947303C19888EC90E047
:10057C000197F1F7C19AA0910005B0910105809106
:10058C00020590910305E8E8F3E160E070E00E9459
:10059C00EE03E85FFD4A6F4F7F4FE0938F05F093BA
:1005AC0090056093910570939205E1E0E0939905B5
:1005BC00E0E0E09393050895E881F9810E948303BC
:1005CC000E946A0322960895E091AC05F091AD0566
:1005DC006091AE057091AF05ADE6BEE486EC91E49A
:1005EC000E948803EE59F8486F4F7F4F0E946A03B0
:1005FC00FB01FF770895B981A881109631F0FC8139
:10060C00EB816A8161931197E9F7EB81FC81259667
:10061C0008950A921A92FA926A937A938A939A9309
:10062C00AA93BA93EA93FA93EFB7EA930895A0E0EA
:10063C00B5E00E94F203EF5FFF4F6F4F7F4F0E94B8
:10064C00F7030895ED91FD913196FE93EE9331975A
:10065C000895E093A505E0E0E093A605E093A705D7
:10066C00E0919305E1300895E991EFBFF991E9919B
:10067C00B991A9919991899179916991F990199070
:10068C0009900895E0E0F0E060E070E0E0939B05F5
:10069C00F0939C0560939D0570939E05089531978A
:1006AC0060407040EA930E943F02F0E0DF01E4E614
:1006BC00F0E00E94E003E09304050895E2E0F0E02E
:1006CC00FA93EA930C947303E093AC05F093AD05A5
:1006DC006093AE057093AF050895E991F99130964A
:1006EC0039F080ED97E00197F1F7A8953197C9F7AC
:1006FC000895F195E195F04008956F2F660F660B04
:10070C00762F08957A9F702D6B9F700DF89F700D4A
:10071C00E99F700D6A9F602D710DFB9F600D711D1F
:10072C00E89F600D711D8827FA9FF02D610D781FD1
:10073C00EB9FF00D611D781FEA9FE02DF10D681FF6
:10074C00781F08950024112490E1AA0FBB1F001CF0
:10075C00111C0E1A1F0A18F40E0E1F1E01C0A160E8
:10076C009A9599F7FD01D00108953F934F935F93AC
:10077C00002411244427552730E2AA0FBB1F881FE1
:10078C00991F001C111C441F551F0E1A1F0A460BE3
:10079C00570B28F40E0E1F1E461F571F01C0A160D9
:1007AC003A9559F7FD01BC01D001CA015F914F91F7
:1007BC003F910895E894B7FF04C0A095B0951196A9
:1007CC006894F7FD96DFBEDFFD010EF492DF08950D
:1007DC00CCDFFD01BC010895ED91FD916D917D91F2
:1007EC0008957E936E93FE93EE9308957A936A9395
:1007FC00FA93EA930895EA17FB07680779070895B7
:00000001FF
